:100000000C940E010C9441010C9441010C9441019B
:100010000C9441010C9441010C9441010C94410158
:100020000C9441010C9441010C9441010C94410148
:100030000C9441010C9441010C9441010C94410138
:100040000C9441010C9441010C9441010C94410128
:100050000C9441010C9441010C9441010C94F91948
:100060000C9441010C94A21B0C94FA1C0C944101B9
:100070000C9441010C9441010C9441010C944101F8
:100080000C9441010C9441010C9441010C944101E8
:100090000C94E21B0C94391D0C9441010C94410109
:1000A0000C9441010C9441010C9441010C944101C8
:1000B0000C9441010C9441010C9441010C944101B8
:1000C0000C9441010C9441010C9441010C94221CAC
:1000D0000C94781D0C9441010C94621C0C94B71D77
:1000E0000C9441017C3C3E5E2B3D3F2F5B5D3B2CE5
:1000F0002A225C0000002100240027002A002D0095
:100100003000330001010000040107010A01000072
:100110002200250028002B002E00310034000201AF
:100120000000050108010B0100002000230026004B
:1001300029002C002F0032000001000003010601FD
:10014000090105050505070508080808020202025D
:100150000A0A080804040404010101010101010163
:100160000303030303030303040707070C0C0C0C2E
:100170000C0C0C0C02020202060606060606060617
:100180000B0B0B0B0B0B0B0B0102102020080810A4
:1001900020401020408002010201080402010102F7
:1001A00004081020408080402010080402018004D0
:1001B000020180402010080402010804020101022B
:1001C0000408102040800102040810204080000034
:1001D000090A02080B0C0D070603040100000000C9
:1001E000000000000000000000000000000000000F
:1001F0000000000000000000000011100F000000CF
:1002000000000000000000000000000000000000EE
:10021000000000004A063E092A1F4F0611241FBE97
:10022000CFEFD1E2DEBFCDBF00E00CBF14E0A0E015
:10023000B2E0E6EFF4E400E00BBF02C007900D92DD
:10024000A43DB107D9F71BBE1AE0A4EDB4E001C08C
:100250001D92A231B107E1F712E0CAE1D2E000E05D
:1002600006C022970109FE010BBF0E943D22C43146
:10027000D10780E00807A9F71BBE0E9461200C94FB
:1002800068220C9400004F925F926F927F928F923F
:100290009F92AF92BF92CF92DF92EF92FF920F9315
:1002A0001F93CF93DF932C014A015B01E9013801D1
:1002B0008A019B0112C0680179010894C11CD11CFC
:1002C000E11CF11C4991D2011896ED91FC9119970E
:1002D000C901B801199597018601C80188199909C2
:1002E0008615970540F3DF91CF911F910F91FF90F5
:1002F000EF90DF90CF90BF90AF909F908F907F90C6
:100300006F905F904F9008956F927F928F929F921F
:10031000AF92BF92CF92DF92EF92FF920F931F9313
:10032000CF93DF933C014A015B01E90112C06A01EE
:100330007B010894C11CD11CE11CF11CD3011A964D
:10034000ED91FC911B97CB01BA0119958993B701E7
:10035000A601CA01881999098017910740F3DF9116
:10036000CF911F910F91FF90EF90DF90CF90BF90B2
:10037000AF909F908F907F906F9008950F931F93F1
:10038000FC0140815181628173819C01245F3F4F58
:100390000AE010E00E9443011F910F9108950F930E
:1003A0001F93FC0140815181628173819C01245F14
:1003B0003F4F0AE010E00E9484011F910F910895C1
:1003C000FC0171876087538742870895EF92FF92FF
:1003D0000F931F93FC014083518362837383465FB5
:1003E0005F4F6F4F7F4F44835583668377831486B7
:1003F000158616861786F18AE08A028B138B248B6A
:10040000358B0E94BE0180E01F910F91FF90EF900D
:100410000895FC0140835183628373830E94CF015E
:1004200080E00895CF92DF92EF92FF920F931F9397
:10043000CF93DF93EC016901E888F988415050407F
:1004400060407040870120E030E0CB01BA01A90193
:1004500098010E94D521AB01BC018C819D81AE81A8
:10046000BF81480F591F6A1F7B1FCE01960187016C
:100470000E94430180E0DF91CF911F910F91FF9087
:10048000EF90DF90CF900895EF92FF920F931F931C
:10049000CF93DF93EC017901411551056105710599
:1004A00031F18C859D85AE85BF8584179507A6079C
:1004B000B707E8F008891989CB01BA01615070408B
:1004C00080409040980140E050E00E94D521AB016F
:1004D000BC018C819D81AE81BF81480F591F6A1F6D
:1004E0007B1FCE0197010E94840180E001C081E062
:1004F000DF91CF911F910F91FF90EF9008958F9210
:100500009F92AF92BF92CF92DF92EF92FF920F93A2
:100510001F93CF93DF93EC014A015B018C859D858E
:10052000AE85BF8584179507A607B707D8F18889D8
:1005300099890E94C418182F092F10C0CE01B70145
:10054000A601212F302F0E944402CE01B501A40143
:10055000212F302F0E9412024601570175016401BC
:100560000894C11CD11CE11CF11C8C859D85AE85B5
:10057000BF858C159D05AE05BF0500F7812F902F17
:100580000E9461198C859D85AE85BF850197A10963
:10059000B1098C879D87AE87BF87CE010E94BE01BF
:1005A00080E001C081E0DF91CF911F910F91FF901A
:1005B000EF90DF90CF90BF90AF909F908F90089575
:1005C000CF92DF92EF92FF920F931F93CF93DF931F
:1005D000EC018B01CC84DD84EE84FF840894C11C83
:1005E000D11CE11CF11C8A899B89AC89BD894C8195
:1005F0005D816E817F81841B950BA60BB70B2889CB
:10060000398940E050E0BC01CD010E9407222C1541
:100610003D054E055F0578F0CC86DD86EE86FF86CB
:10062000CE01B701A60198010E941202CE010E94DC
:10063000BE0180E001C082E0DF91CF911F910F9158
:10064000FF90EF90DF90CF900895FC016485758551
:100650008685978508956F927F928F929F92AF9231
:10066000BF92CF92DF92EF92FF920F931F93CF939F
:10067000DF930F92CDB7DEB7F82E4A016901F90179
:100680001182108281E0A82EB12C062E02C0AA0C85
:10069000BB1C0A94E2F716C0F6018081918188158F
:1006A000990520F01182108280E021C0C801698381
:1006B0000E944F1AF60180819181800F911F9183D2
:1006C0008083698189B190E0FF2029F08A219B21F4
:1006D000009749F40BC0062E02C0959587950A94A1
:1006E000E2F780FD03C0EE2069F3D6CF81E00F90E2
:1006F000DF91CF911F910F91FF90EF90DF90CF90FE
:10070000BF90AF909F908F907F906F9008953F9291
:100710004F925F926F927F928F929F92AF92BF9211
:10072000CF92DF92EF92FF920F931F93CF93DF93BD
:10073000382ED62ECA01B901E801188219821A8210
:100740001B8201E010E00D2C02C0000F111F0A9463
:10075000E2F728EE33E040E050E00E94D5214B0163
:100760005C012701662457FC6094762C1EC08881AA
:100770009981AA81BB8188159905AA05BB0530F02E
:10078000188219821A821B8280E024C0C7010E944D
:100790004F1A88819981AA81BB81840D951DA61D60
:1007A000B71D88839983AA83BB8389B190E03320E6
:1007B00029F080239123009749F40BC00D2C02C02F
:1007C000959587950A94E2F780FD03C0CC2069F3E4
:1007D000CECF81E0DF91CF911F910F91FF90EF90ED
:1007E000DF90CF90BF90AF909F908F907F906F9051
:1007F0005F904F903F9008952F923F924F925F925B
:100800006F927F928F929F92AF92BF92CF92DF9220
:10081000EF92FF920F931F93CF93DF9300D00F922D
:10082000CDB7DEB75C012B011901FC01E956FE4F83
:100830007080662463946724FC01128216821582FC
:10084000872D4423A9F028E833E140E050E08E01F1
:100850000F5F1F4FFEE1EF2EF12CCC24C3940E94BA
:100860008703882391F486E899E065E273E01AC073
:1008700028E833E140E050E08E010F5F1F4FEEE1CA
:10088000EE2EF12CCC240E94870388249924821414
:10089000930464F0F50112821682158286E899E0CD
:1008A0006AE373E00E94C22180E038C06401CC0C8E
:1008B000DD1CCC0CDD1C9601295F3F4F2A0D3B1D32
:1008C000862DB20148EE5DEF0EE110E0EE24E394D8
:1008D0000E942B03882331F481E0F5018283968204
:1008E00085821CC09601275F3F4F2A0D3B1D872D37
:1008F000B20148EE5DEF0EE110E0EE24E3940E94B9
:100900002B0394012F5F3F4F882331F481E0F501E1
:1009100082833683258302C04901B9CF0F900F909F
:100920000F900F90DF91CF911F910F91FF90EF905B
:10093000DF90CF90BF90AF909F908F907F906F90FF
:100940005F904F903F902F9008950F931F93CF93F8
:10095000DF93EC018B0186E899E06AE873E00E947E
:10096000C221CE01B80141E024E630E00E94FC0340
:10097000882329F086E899E066EB73E004C086E8F6
:1009800099E06CEC73E00E94C221DF91CF911F913E
:100990000F910895CF93DF93AB01BC01CEEED4E06D
:1009A000CE010E943607CE010E94A606DF91CF91AC
:1009B0000895FF920F931F93CF93DF938B019C01B8
:1009C000F42ECEEED4E0CE01B901A8010E94360784
:1009D000CE016F2D0E945406CE010E946A06DF915F
:1009E000CF911F910F91FF9008958130910569F487
:1009F0008EEE94E00E941D0784ED94E069ED74E0B2
:100A00004AEC54E00E94E0010895009721F48EEE34
:100A100094E00E94300708958F929F92AF92BF9208
:100A2000CF92DF92EF92FF920F931F93CF93DF93BA
:100A3000CDB7DEB76B970FB6F894DEBF0FBECDBF54
:100A400086E899E040E855E260E070E00E94F61D1B
:100A500086E899E06DEE73E00E94BF2185E361E0D6
:100A60000E94BB1A89E095E064E00E949F078823FA
:100A700039F486E899E065E074E00E94C221F6C08E
:100A800086E899E06CE174E00E94C22186E899E072
:100A900061E374E00E94C221CE01019669E075E035
:100AA00048E454E023E10E94B2088B819C8190933A
:100AB000F1048093F0048D819E81AF81B88580938D
:100AC000F2049093F304A093F404B093F5048985A1
:100AD0009A85AB85BC858093F6049093F704A09328
:100AE000F804B093F904AAEFB4E0FE013D968DE05E
:100AF00001900D928150E1F78A8D9B8D90930805AE
:100B000080930705CE0101960E94300784ED94E0A2
:100B10000E942503AB01BC0186E899E02AE030E0A1
:100B20000E944C2184ED94E040E050E0BA0100E5E1
:100B300013EC20E030E0E4E0EE2EF12C0E94E60120
:100B400084ED94E040E050E0BA010E94090286E89A
:100B500099E062E574E00E94BF2184ED94E00E9478
:100B60002503AB01BC0186E899E02AE030E00E9451
:100B70004C2186E899E061E674E00E94C22101E020
:100B800010E01093EB040093EA04C801880F991F4A
:100B90009093ED048093EC0484ED94E06AEE74E0AD
:100BA0000E94E0020530110541F484ED94E045E037
:100BB00050E060E070E00E947F020F5F1F4F003145
:100BC0001105F9F686E899E062E574E00E94BF211C
:100BD00084ED94E00E942503AB01BC0186E899E016
:100BE0002AE030E00E944C2181E0C82ED12CE12C7B
:100BF000F12C2AC084ED94E0B701A6012AEE34E07E
:100C00000E94440286E899E065E774E00E94BF21F3
:100C10006091EA047091EB0486E899E04AE050E0C4
:100C20000E94A02186E899E06AE774E00E94BF2153
:100C30006091EC047091ED0486E899E04AE050E0A0
:100C40000E94A0217501640184ED94E00E942503B7
:100C5000DC01CB01460157010894811C911CA11CA9
:100C6000B11CC816D906EA06FB0620F26B960FB631
:100C7000F894DEBF0FBECDBFDF91CF911F910F91D2
:100C8000FF90EF90DF90CF90BF90AF909F908F90AC
:100C90000895089581E090E00E94F504089580E0B1
:100CA00090E00E94F5040895CF93DF930F92CDB7A3
:100CB000DEB76983DC01ED91FC910280F381E02DC8
:100CC000BE016F5F7F4F41E050E019950F90DF91BB
:100CD000CF910895FC01818D928D009711F00E94B3
:100CE000AE0F0895CF93DF93EC01898D9A8D009715
:100CF00061F0FC01138212820E943212E98DFA8D9A
:100D0000228133812115310531F081E090E09B8310
:100D10008A8380E090E0DF91CF910895CF93DF93B5
:100D20000F92CDB7DEB7BE016F5F7F4F41E050E05D
:100D30000E94810D8130910519F4898190E002C0F3
:100D40008FEF9FEF0F90DF91CF910895FC01818D80
:100D5000928D009719F00E948E0608958FEF9FEFF5
:100D600008950F931F93CF93DF93EC01898D9A8D94
:100D70000097A9F00E948E068C018FEF0F3F180795
:100D800081F0898D9A8DFC01428553856485758536
:100D900041505040604070400E94140F02C000E07B
:100DA00010E0C801DF91CF911F910F910895EF924C
:100DB000FF920F931F93CF93DF930F920F92CDB7B4
:100DC000DEB77C018A01DC0113961C921E921297F9
:100DD00088EE93E0A0E0B0E0F70184839583A683DA
:100DE000B78385E894E0918380838DE190E0698307
:100DF0007A830E94C418FC01D7015A969C938E9363
:100E0000599769817A81009779F0DB018DE10D9026
:100E100001928150E1F7C7010C96B8014CE050E017
:100E20000E945922F701108E0F900F90DF91CF9101
:100E30001F910F91FF90EF900895FC011382128291
:100E400048EE53E060E070E0448355836683778327
:100E500085E894E091838083128E118E1486089524
:100E600025E834E0FC01318320830895FC01818D65
:100E7000928D009719F00E94140F089580E0089554
:100E80000F931F93DC015996ED91FC915A9730977F
:100E900029F0028513852485358503C00FEF1FEFE8
:100EA0009801B801C9011F910F9108950F931F93E5
:100EB000DC015996ED91FC915A97309729F00389FE
:100EC00014892589368903C000E010E09801B80133
:100ED000C9011F910F910895CF92DF92EF92FF9277
:100EE000CF93DF93EC01898D9A8D0097F9F0CE01B5
:100EF0000E9456076B017C01CE010E944007DC0175
:100F0000CB01C81AD90AEA0AFB0A80E0C81680E8B1
:100F1000D80680E0E80680E0F80630F08FEFC82EB3
:100F20008FE7D82EE12CF12CC60102C080E090E0C2
:100F3000DF91CF91FF90EF90DF90CF9008950F93C6
:100F40001F93CF93DF938C01462F61E00E94270A05
:100F50008823C1F0E8012C96CE01B80141E00E943F
:100F60009817882339F4CE01B80140E00E94981701
:100F7000882341F0C8018A96BE010E94300D91E09D
:100F8000882309F490E0892FDF91CF911F910F9171
:100F90000895FC01DB0112968D919C911397938328
:100FA000828387EA94E09183808314968C911497CE
:100FB000848315968C911597858316964D915D9136
:100FC0006D917C91199746835783608771871A9634
:100FD0004D915D916D917C911D97428753876487F8
:100FE00075871E964D915D916D917C9151974687C5
:100FF0005787608B718B52968C915297828B539648
:101000004D915D916D917C915697438B548B658B7F
:10101000768B57964D915D916D917C915A97478B48
:10102000508F618F728F5B968D919C915C97948F9E
:10103000838F08954F925F926F927F928F929F92CB
:10104000AF92BF92CF92DF92EF92FF920F931F93D6
:10105000CF93DF93CDB7DEB7C754D0400FB6F89427
:10106000DEBF0FBECDBF4C013A0129018E01055DE7
:101070001F4F665D7F4FC8010E94C907198A188AF1
:1010800087EA94E09F878E871B8A7301AEE0AA2EC1
:10109000B12CAC0EBD1E68013BC0F70120812F3280
:1010A00021F40894E11CF11C33C08E198D3008F036
:1010B0008CE0082F10E0CE010196B701A8010E9434
:1010C0005922E1E0F0E0EC0FFD1FE00FF11F10826C
:1010D000C5010E94F30FC501B601AE014F5F5F4F1E
:1010E00021E00E943C11882349F4F401138212820A
:1010F00087EA94E09183808315821BC0E00EF11E85
:10110000C6010E94F30F9C2D8D2D6501A92EB82ECE
:10111000C7016FE270E00E944E22009709F0BDCF38
:10112000E618F708F201F182E082C401B6010E94DC
:10113000C907C401C95BDF4F0FB6F894DEBF0FBE0D
:10114000CDBFDF91CF911F910F91FF90EF90DF9076
:10115000CF90BF90AF909F908F907F906F905F9057
:101160004F900895AF92BF92DF92EF92FF920F934C
:101170001F93CF93DF93CDB7DEB7C657D0400FB6DE
:10118000F894DEBF0FBECDBF7C015A01D22ECE0136
:10119000865A9F4F9E012F5F3F4F0E941A08098178
:1011A0001A810A0D1B1DF8018081882371F4CE017C
:1011B000CD96BE01665A7F4F0E94C907C701BE0186
:1011C000635C7F4F41EA54E045C01BA21AA287EA44
:1011D00094E099A388A31DA2A0968FADA097882321
:1011E000C9F08250823058F4CE01809663E375E0F6
:1011F000A8012D2D0E943C118823A9F40BC0CE011B
:101200008096BE01665A7F4FA8012D2D0E943C1189
:10121000882321F4C7010E941D071EC0CE01865AF3
:101220009F4F0E94F30F8D2D867041F04BA95CA952
:101230006DA97EA9CE0180960E94140FCE0103965F
:10124000BE01605E7F4F0E94C907C701BE016D5F8E
:101250007F4FA8010E94D706C701CA58DF4F0FB6BB
:10126000F894DEBF0FBECDBFDF91CF911F910F91DC
:10127000FF90EF90DF90BF90AF90089510920E0511
:1012800010920F05109212051092140582E090E062
:10129000A0E0B0E08093150590931605A093170584
:1012A000B093180510922C05109236051092350552
:1012B00087EA94E0909334058093330510923805C3
:1012C00008958EBD0DB407FEFDCF08958FEF0E94E7
:1012D00061098EB50895FC01848161E00E946E1B56
:1012E0000895FC01848160E00E946E1B0895CF93F5
:1012F000DF93EC018E818823D1F08FEF8EBD4FEF0D
:1013000004C00DB407FEFDCF4EBD8F8198859C01B2
:101310002F5F3F4F38872F8322E08130920788F379
:101320000DB407FEFDCFCE010E946B091E82DF9136
:10133000CF910895673028F026E1FC01258380E0F5
:101340000895962F8DB560FD02C0663011F48E7F32
:1013500001C081608DBD8CB58C7F8CBD3CB592FF8A
:1013600002C022E001C020E081E091FF80E0832BF9
:10137000822B8CBD81E008950F931F93CF93DF9351
:10138000EB010E94411A8B019C010E9466098F3F6C
:1013900049F00E94411A601B710B6C177D07A8F37E
:1013A00080E001C081E0DF91CF911F910F910895FE
:1013B0008F929F92AF92BF92FF920F931F93CF9302
:1013C000DF938C01F62E49015A010E947709C8016A
:1013D0000E947109C8016CE271E00E94BC098F2D66
:1013E00080640E946109C8E1D0E0D501C4010C2EDF
:1013F00004C0B695A795979587950A94D2F70E9451
:10140000610928978FEFC83FD80779F7FF2029F0A7
:10141000E8E0FE1621F08FEF03C085E901C087E800
:101420000E946109C0E00E946609F801828787FF77
:1014300004C0CF3F11F0CF5FF6CFDF91CF911F9166
:101440000F91FF90BF90AF909F908F900895AF92B3
:10145000BF92CF92DF92EF92FF920F931F93CF93A1
:10146000DF93EC01062F1B8619861E821D824C839A
:101470000E94411ADC01CB015C018C8161E00E9479
:10148000BB1ACE010E946B0982E360E00E94BB1A86
:1014900083E361E00E94BB1A84E361E00E94BB1A0F
:1014A00085E361E00E94BB1A85E361E00E946E1B48
:1014B00083E58CBD8DB58E7F8DBD1AE08FEF0E94C8
:1014C00061091150D9F7CE010E9471090AC00E942A
:1014D000411A6A197B0987E0613D780710F081E0C5
:1014E00057C0CE0160E020E030E0A9010E94D80999
:1014F000182F8A87813059F7CE0168E02AEA31E057
:1015000040E050E00E94D80982FF02C01B870CC057
:1015100014E00E9466098A871150D9F78A3A11F0BF
:1015200082E036C082E08B878B85823031F4C12C1B
:10153000D12CE12C80E4F82E0EC0CC24DD247601E1
:101540000AC00E94411A6A197B0987E0613D780749
:1015500010F088E01DC0CE0167E320E030E0A90173
:101560000E94D809CE0169E2A70196010E94D8091C
:101570008A87882331F78B858230E9F4CE016AE3CC
:1015800020E030E0A9010E94D809882339F086E0E4
:101590008D83CE010E946B0980E014C00E94660911
:1015A000807C803C11F483E08B870E9466090E9456
:1015B00066090E946609CE010E946B09CE01602F68
:1015C0000E949A09DF91CF911F910F91FF90EF90A8
:1015D000DF90CF90BF90AF9008950F931F93CF935C
:1015E000DF93EC010E94411A8B019C010AC00E940A
:1015F000411A601B710B81E06D32780710F08FE0AB
:1016000008C00E9466098A878F3F89F38E3F39F0B0
:101610008DE08D83CE010E946B0980E001C081E0E6
:10162000DF91CF911F910F9108958F929F92AF926A
:10163000BF92CF92DF92EF92FF920F931F93CF93BF
:10164000DF93EC014A015B0169010115110509F401
:101650007EC0C801820F931F22E08130920708F0FC
:1016600071C08E81882371F088819981AA81BB81A4
:10167000481759076A077B0729F48F819885C81690
:10168000D90618F588829982AA82BB828B8583301D
:1016900039F079E0880C991CAA1CBB1C7A95D1F70B
:1016A000CE0161E1A50194010E94D809882319F0B7
:1016B00083E08D8347C0CE010E94ED0A882309F4A0
:1016C00041C018861F8281E08E838FEF8EBD2FEF81
:1016D00009C00DB407FEFDCF2EBD8F819885019600
:1016E00098878F838F8198858C159D0590F398013D
:1016F00021503040F70180E090E04FEF07C00DB47B
:1017000007FEFDCF5EB551934EBD0196821793073C
:10171000B0F30DB407FEFDCF8EB52E0D3F1DF901C0
:1017200080838F819885800F911F98878F8329856B
:10173000222321F0F2E080309F0748F0CE010E9482
:10174000770905C0CE010E946B0980E001C081E0ED
:10175000DF91CF911F910F91FF90EF90DF90CF908D
:10176000BF90AF909F908F900895EF92FF920F934C
:101770001F93790120E030E000E012E00E94150B99
:101780001F910F91FF90EF900895CF93DF93EC019D
:101790006EBDFA0180E090E00DB407FEFDCF208120
:1017A0002EBD0DB407FEFDCF21812EBD02963296CF
:1017B00022E08030920781F70DB407FEFDCF8FEF56
:1017C0000E9461098FEF0E9461090E9466098A8761
:1017D0008F71853039F081E18D83CE010E946B09D4
:1017E00080E001C081E0DF91CF910895CF92DF9238
:1017F000EF92FF920F931F93CF93DF93EC016A0157
:101800007B018901411551056105710511F482E1E2
:1018100032C08B85833039F0E9E0CC0CDD1CEE1C46
:10182000FF1CEA95D1F7CE0168E1A70196010E945D
:10183000D809882311F084E01EC0CE016EEFA80104
:101840000E94C50B8823C1F0CE0168E572E00E94BA
:10185000BC09882311F485E10EC0CE016DE020E0C3
:1018600030E0A9010E94D809882321F40E9466096A
:10187000882379F084E18D83CE010E946B0980E09A
:10188000DF91CF911F910F91FF90EF90DF90CF905C
:101890000895CE010E946B0981E0F2CFCF93DF93D0
:1018A000EC019C012A5F3F4F8B8D9C8D41E050E005
:1018B00060E070E00E942D168823A1F08F89988D3A
:1018C000A98DBA8D0097A105B10571F48E819F8114
:1018D000A885B9858F8B988FA98FBA8F8C818068E6
:1018E0008C8302C080E001C081E0DF91CF91089538
:1018F000CF92DF92EF92FF921F93CF93DF93EC0191
:101900000E944E0C882309F44EC0EB8DFC8DCE80D6
:10191000DF80E884F9848EEF9FEFAFEFBFEFC80E52
:10192000D91EEA1EFB1E058404C0CC0CDD1CEE1C77
:10193000FF1C0A94D2F786859785A089B189C80EC5
:10194000D91EEA1EFB1E14810894C108D108E108C3
:10195000F1080BC0C701B601610F711D811D911DFA
:101960000E9469148823F9F01150112399F7EB8D27
:10197000FC8D80E092E0A0E0B0E0058404C0880F18
:10198000991FAA1FBB1F0A94D2F74B895C896D89E6
:101990007E89480F591F6A1F7B1F4B8B5C8B6D8B99
:1019A0007E8B81E001C080E0DF91CF911F91FF909D
:1019B000EF90DF90CF900895CF93DF93EC01462F07
:1019C0008E859F85A889B989BC01CD010E942E14FE
:1019D000882351F08A8990E025E0880F991F2A9585
:1019E000E1F7835A9A4F02C080E090E0DF91CF91F7
:1019F0000895DC01FB018BE090E291938150E9F7BF
:101A000030E047E021C02E3241F44A3029F138E07D
:101A10004AE01AC0E21719F41FC084EE90E0FC01FE
:101A20000196E491EE23B1F74317B0F02132A0F014
:101A30002F37A0F4FB01E30FF11D822F81568A316D
:101A400008F4205220833F5F2D912223E1F681E0AC
:101A5000FB019081903219F480E0089580E00895B0
:101A60000F931F93CF93DF93EC018B018D8188231C
:101A700009F041C0FB0187898031B1F482E08D8398
:101A80001F8A188E198E1A8E808D918DA0E0B0E07D
:101A900035E0880F991FAA1FBB1F3A95D1F78B8B92
:101AA0009C8BAD8BBE8B15C0803229F583E08D8376
:101AB000FB01428D538D648D758D4F8B588F698FCF
:101AC0007A8F9E012D5E3F4FC8010E941815882312
:101AD00091F01C8F0B8F81E08C831E821F821886F1
:101AE00019861A861B861C861D861E861F86188AE6
:101AF000198A1A8A01C080E0DF91CF911F910F915E
:101B000008952F923F924F925F926F927F928F92A1
:101B10009F92AF92BF92CF92DF92EF92FF920F937C
:101B20001F93CF93DF9300D000D0CDB7DEB79C8357
:101B30008B83862E272E2A01DC0115968C91159712
:101B4000882309F4E5C014968C91149780FFE0C0B7
:101B5000FAC02A01481A590A3201A82CB22CEB818A
:101B6000FC813696FA83E983212C02E0302ECAC02C
:101B7000EB81FC8182859385A485B5857FEF872ED7
:101B800071E0972E8822992225816C017D0119E050
:101B9000F694E794D794C7941A95D1F7438D548D52
:101BA0005E834D83223061F4DA015A964D915D9146
:101BB0006D917C915D974C0D5D1D6E1D7F1D4EC01E
:101BC000ED81FE81048101500C218114910411F5F5
:101BD000002301F50097A105B10559F4EB81FC81C3
:101BE0008789908DA18DB28D86839783A087B187D9
:101BF00011C0AB81BC8116964D915D916D917C9128
:101C000019978D819E8129813A810E94921488239F
:101C100009F47EC0AB81BC815B96ED91FC915C9731
:101C200016964D915D916D917C911997425050405F
:101C300060407040058404C0440F551F661F771F25
:101C40000A94D2F786859785A089B189480F591FD4
:101C50006A1F7B1F400F511D611D711DC101881935
:101C6000990963018615970508F46C01EB81FC81E5
:101C7000848186FD06C0F0E0CF16F2E0DF0609F0B1
:101C800080C08091AB049091AC04A091AD04B09160
:101C9000AE04481759076A077B0709F472C08091A0
:101CA0005B0590915C059401860175010E94150BFE
:101CB000882371F1AC0CBD1C12C09401235A3A4F19
:101CC000C9018C0D9D1DF901D50102C041914D93B3
:101CD000E817F907D9F7E21BF30BAE0EBF1EA601FA
:101CE00060E070E0EB81FC8182859385A485B585F9
:101CF000840F951FA61FB71F82879387A487B58778
:101D00006C187D086114710409F032CFC20102C061
:101D10008FEF9FEF26960FB6F894DEBF0FBECDBFB4
:101D2000DF91CF911F910F91FF90EF90DF90CF90B7
:101D3000BF90AF909F908F907F906F905F904F90EB
:101D40003F902F900895AB81BC8153964D915D914A
:101D50006D917C9156971A968D919D910D90BC91A5
:101D6000A02D820120E030E06A017B01C81AD90A67
:101D7000EA0AFB0AC016D106E206F30608F4E9CE29
:101D8000EBCECB01BA0140E00E942E14882309F06B
:101D900094CFBECFCF92DF92EF92FF920F931F931B
:101DA000CF93DF930F92CDB7DEB78C01FC01858115
:101DB000823078F0C284D384E484F584C801BE0103
:101DC0006F5F7F4F41E050E00E94810D81309105AF
:101DD00061F080E090E00F90DF91CF911F910F9123
:101DE000FF90EF90DF90CF900895F8018285938562
:101DF000A485B5854F96A11DB11D82879387A487C1
:101E0000B587D701C60125E0B695A7959795879523
:101E10002A95D1F78F7090E035E0880F991F3A9599
:101E2000E1F7835A9A4FD7CF8F929F92AF92BF928A
:101E3000CF92DF92EF92FF920F931F93CF93DF9396
:101E4000EC014A015B012D81222309F475C08B89C5
:101E50009C89AD89BE8984179507A607B70708F442
:101E60006BC078C081149104A104B10449F41E82AE
:101E70001F82188619861A861B861C861D865AC0E4
:101E80004A855B856C857D85EB8DFC8D258530E0F5
:101E9000275F3F4FDB01CA010197A109B109022E5B
:101EA00004C0B695A795979587950A94D2F77501C2
:101EB00064010894C108D108E108F10804C0F6944F
:101EC000E794D794C7942A95D2F7C816D906EA069C
:101ED000FB0628F0411551056105710549F48F890C
:101EE000988DA98DBA8D8E839F83A887B98716C0D8
:101EF000C81AD90AEA0AFB0A11C04E815F816885B7
:101F000079858B8D9C8D98010E9492140894C1084C
:101F1000D108E108F108882321F40EC08E010A5F80
:101F20001F4FC114D104E104F10439F78A869B865E
:101F3000AC86BD8681E001C080E0DF91CF911F912A
:101F40000F91FF90EF90DF90CF90BF90AF909F9058
:101F50008F900895223009F085CFE8CF0F931F931B
:101F6000CF93DF938C01FC0185818823B1F18481BB
:101F700087FF30C0C80161E00E94DC0CEC010097D3
:101F800061F1F8018581823040F483899489A589C3
:101F9000B6898C8F9D8FAE8FBF8FF8018789908D0A
:101FA000A18DB28D9B8F8A8FBD8BAC8BE091540538
:101FB000F0915505309751F0BE016A5E7F4FCE011A
:101FC00048961995888D998D9B8B8A8BF801848111
:101FD0008F7784830E94F01301C080E0DF91CF915E
:101FE0001F910F910895CF93DF93EC010E94AE0FE4
:101FF000882319F01D8281E001C080E0DF91CF913C
:1020000008954F925F926F927F928F929F92AF92BC
:10201000BF92EF92FF920F931F93CF93DF9300D065
:102020000F92CDB7DEB77C014A015B01DC0115964A
:102030008C911597813009F091C014968C9114976A
:1020400081FF8CC09FC00097A105B10509F484C031
:10205000F7014284538464847584C701B501A401E7
:102060000E94140F882309F479C0D7015B968D91E3
:102070009C915C9781149104A104B10489F4579652
:102080004D915D916D917C915A970E9442178823E2
:1020900009F464C0F701178A108E118E128E3DC0AC
:1020A000D70116964D915D916D917C9119979E0186
:1020B0002F5F3F4F0E949214882309F44FC0D7012D
:1020C0005B96ED91FC915C9749815A816B817C8193
:1020D0008789803129F488EF9FEFA0E0B0E004C049
:1020E00088EF9FEFAFEFBFE0481759076A077B07FC
:1020F000A0F4CF010E944217882381F1F7014681A5
:10210000578160857185838D948D0FEF1FEF2FEFC1
:102110003FE00E948315882309F1D70153968D92E1
:102120009D92AD92BC92569714968C9114978068AC
:1021300014968C93C7010E94AE0F882379F0B501E5
:10214000A401481459046A047B0410F4B301A201E9
:10215000C7010E94140F03C081E001C080E00F900E
:102160000F900F900F90DF91CF911F910F91FF90E3
:10217000EF90BF90AF909F908F907F906F905F9007
:102180004F900895F70183899489A589B6898417AA
:102190009507A607B70708F056CFE0CF1F93CF9358
:1021A000DF93EC01142FE62FF0E035E0EE0FFF1F78
:1021B0003A95E1F7E35AFA4F8385817121F0842F34
:1021C000827409F052C06A8B8091AB049091AC0488
:1021D000A091AD04B091AE048E879F87A88BB98B78
:1021E0004489558960E070E0BA0155274427828D03
:1021F000938DA0E0B0E0482B592B6A2B7B2B4F8BA3
:10220000588F698F7A8F838590E0887190700097DE
:1022100051F4848D958DA68DB78D8B8B9C8BAD8B5A
:10222000BE8B81E00DC080319105F9F49E012D5ED9
:102230003F4F8B8D9C8D0E9418158823B1F084E050
:102240008D83812F8F708C831E821F821886198642
:102250001A861B861C861D8616FF09C0CE0140E02B
:1022600050E0BA010E94011003C080E001C081E08B
:10227000DF91CF911F9108954F925F926F927F925D
:102280008F929F92AF92BF92CF92DF92EF92FF9286
:102290000F931F93CF93DF93CDB7DEB72B970FB676
:1022A000F894DEBF0FBECDBF3C015B01CA01822E98
:1022B000F3012581222309F0BDC08E010F5F1F4F5E
:1022C000B8010E94F90C882309F4B4C0F501838D8C
:1022D000948DF301948F838FF501168217821086F7
:1022E00011861286138614861586992428013DC00E
:1022F000C5010E94CA0EBC01009709F49BC097015A
:102300008601E5E03695279517950795EA95D1F76B
:102310000F70FC018081882311F0853EB9F499206B
:1023200081F4F301028B8091AB049091AC04A091F5
:10233000AD04B091AE0486879787A08BB18B9924AA
:102340009394FB018081882381F41EC0C2014BE07D
:1023500050E00E944122009741F4882D8073803321
:1023600009F468C0C301602F61C0F501C284D38441
:10237000E484F58483899489A589B689C816D90629
:10238000EA06FB0608F4B4CF882D8271823109F089
:1023900051C0992041F0C30161E00E94DC0C8C0126
:1023A000009779F447C0F5018581823009F442C075
:1023B000C5010E94780C8823E9F1F301128A0DE52A
:1023C00015E080E2F80111928A95E9F7D801FE0143
:1023D00031968BE001900D928150E1F7E091540528
:1023E000F0915505309739F0B801625F7F4FC80111
:1023F0004096199509C081E298E2F801918B808B93
:1024000080E098E097878687F80180899189938B8F
:10241000828B918F808F86859785978B868B0E9484
:10242000F013882339F0C301F3016289482D0E941B
:10243000CE1001C080E02B960FB6F894DEBF0FBE21
:10244000CDBFDF91CF911F910F91FF90EF90DF9063
:10245000CF90BF90AF909F908F907F906F905F9044
:102460004F9008952F923F924F925F926F927F927A
:102470008F929F92BF92CF92DF92EF92FF920F9333
:102480001F93CF93DF9300D000D0CDB7DEB78C0180
:10249000B62EC72E5E834D83DC0115968C91159761
:1024A000813009F066C114968C91149781FF61C147
:1024B00083C1F8014389548965897689828593852A
:1024C000A485B58584179507A607B70731F0C8011D
:1024D0000E94140F882309F44CC12D803E804B2CA0
:1024E0005C2C17C1F801238D348DF901B480BA94A6
:1024F000AC01BD01032E39E0769567955795479558
:102500003A95D1F7302DB4224FEF642E41E0742E6E
:1025100068227922BB2009F04EC06114710409F0D1
:102520004AC0D80116964D915D916D917C91199795
:10253000411551056105710581F457968D919D9165
:102540000D90BC91A02D0097A105B10549F1F801AE
:1025500086839783A087B1872EC0C9019E012F5F14
:102560003F4F0E949214882309F40AC149815A817D
:102570006B817C81D8015B96ED91FC915C9787899A
:10258000803129F488EF9FEFA0E0B0E004C088EF2D
:102590009FEFAFEFBFE0481759076A077B0730F09E
:1025A000C8010E944E0C882331F4E3C0F801468331
:1025B00057836087718780E092E08619970941010F
:1025C0008215930508F44C01D8015B96ED91FC91BE
:1025D0005C971696CD90DD90ED90FC9019978EEF5C
:1025E0009FEFAFEFBFEFC80ED91EEA1EFB1E05849A
:1025F00004C0CC0CDD1CEE1CFF1C0A94D2F78685AF
:102600009785A089B189C80ED91EEA1EFB1ECB0C86
:10261000D11CE11CF11C90E0891692E0990649F565
:102620008091AB049091AC04A091AD04B091AE0444
:102630008C159D05AE05BF0559F48FEF9FEFDC01AA
:102640008093AB049093AC04A093AD04B093AE041C
:1026500080915B0590915C05B701A60192010E94F3
:10266000F60B882309F485C0A0E0B2E04A0E5B1E99
:102670003EC06114710409F5F80182859385A48533
:10268000B585438954896589768984179507A60796
:10269000B70798F00E94F013882309F46AC0C0922B
:1026A000AB04D092AC04E092AD04F092AE04809101
:1026B0005A05816080935A0508C0C701B60141E000
:1026C0000E942E14882309F454C09301235A3A4FD0
:1026D000C901880D991DD201F90102C04D914193A4
:1026E000E817F907D9F7E21BF30B4E0E5F1E281807
:1026F0003908A40160E070E0F80182859385A48523
:10270000B585840F951FA61FB71F82879387A4875F
:10271000B587F80182859385A485B5852114310498
:1027200009F0E0CE438954896589768948175907AD
:102730006A077B0740F4838B948BA58BB68B8481CF
:10274000806884830DC08091540590915505009751
:1027500039F08D819E81009719F08481806884838F
:10276000F801848183FF0EC0C8010E94AE0F882348
:1027700049F481E090E0D80113969C938E931297D0
:102780001E821D828D819E8126960FB6F894DEBF33
:102790000FBECDBFDF91CF911F910F91FF90EF90B2
:1027A000DF90CF90BF909F908F907F906F905F90C1
:1027B0004F903F902F90089582FD7BCE8ECECF9389
:1027C000DF930F92CDB7DEB76983BE016F5F7F4F96
:1027D00041E050E00E9432120F90DF91CF910895B6
:1027E00080915A058823B1F14091AB045091AC041B
:1027F0006091AD047091AE0480915B0590915C0591
:102800002DE535E00E94F60B882331F14091560505
:102810005091570560915805709159054115510522
:102820006105710591F080915B0590915C052DE546
:1028300035E00E94F60B882359F01092560510924D
:102840005705109258051092590510925A0502C06A
:1028500080E0089581E0089580E00895CF92DF92AE
:10286000EF92FF92CF936B017C01C42F8091AB0458
:102870009091AC04A091AD04B091AE048C159D056F
:10288000AE05BF05C1F00E94F0138823D9F08091F6
:102890005B0590915C05B701A6012DE535E00E942E
:1028A000B50B882379F0C092AB04D092AC04E092CF
:1028B000AD04F092AE0480915A058C2B80935A059A
:1028C00081E001C080E0CF91FF90EF90DF90CF904A
:1028D0000895CF92DF92EF92FF926B017C010E94EC
:1028E000F0138823C9F0EDE5F5E080E090E0119267
:1028F000019622E080309207D1F7C092AB04D092CB
:10290000AC04E092AD04F092AE0480915A0581606F
:1029100080935A0581E001C080E0FF90EF90DF9046
:10292000CF900895AF92BF92CF92DF92EF92FF9235
:102930000F931F93CF93DF93EC016A017B01590141
:1029400089859A85AB85BC850196A11DB11D84172B
:102950009507A607B70708F45FC04B895C896D89A6
:102960007E898F89803129F4BB27AF2D9E2D8D2D37
:1029700009C0D701C60137E0B695A7959795879509
:102980003A95D1F78C019D01040F151F261F371FA3
:10299000C901B8010091AB041091AC042091AD04C1
:1029A0003091AE04601771078207930729F040E069
:1029B0000E942E14882381F18F89803191F48FEF4A
:1029C00090E0A0E0B0E0C822D922EA22FB22F60182
:1029D000EE0FFF1FE35AFA4F80819181A0E0B0E033
:1029E00014C00FE710E020E030E0C022D122E22244
:1029F000F322F601EE0FFF1FEE0FFF1FE35AFA4F0F
:102A000080819181A281B381BF70F5018083918320
:102A1000A283B38381E001C080E0DF91CF911F9159
:102A20000F91FF90EF90DF90CF90BF90AF900895FF
:102A30006F927F928F929F92AF92BF92CF92DF92CE
:102A4000EF92FF920F931F93CF93DF9300D00F92DB
:102A5000CDB7DEB78C0149835A836B837C83390100
:102A6000CC24DD247601812CF2E09F2EA12CB12C08
:102A700049815A816B817C81C8019E012F5F3F4F44
:102A80000E949214882359F1D501C401F8010584EC
:102A900004C0880F991FAA1FBB1F0A94D2F7C80E43
:102AA000D91EEA1EFB1E49815A816B817C81878970
:102AB000803129F488EF9FEFA0E0B0E004C088EFF8
:102AC0009FEFAFEFBFE0481759076A077B0780F217
:102AD000F301C082D182E282F38281E001C080E012
:102AE0000F900F900F900F90DF91CF911F910F914A
:102AF000FF90EF90DF90CF90BF90AF909F908F901E
:102B00007F906F9008954F925F926F927F928F9215
:102B10009F92AF92BF92CF92DF92EF92FF920F936C
:102B20001F93CF93DF93EC016A017B0128013901E8
:102B3000423051056105710508F47DC089859A858B
:102B4000AB85BC850196A11DB11D84179507A6070D
:102B5000B70708F470C04B895C896D897E898F89BD
:102B6000803129F4BB27AF2D9E2D8D2D09C0D701B3
:102B7000C60127E0B695A795979587952A95D1F731
:102B80004C015D01840E951EA61EB71E8091AB04FC
:102B90009091AC04A091AD04B091AE048816990652
:102BA000AA06BB0641F0C501B40140E00E942E1404
:102BB000882309F440C08F89803181F48FEF90E041
:102BC000A0E0B0E0C822D922EA22FB22F601EE0FF3
:102BD000FF1FE35AFA4F5182408213C08FE790E003
:102BE000A0E0B0E0C822D922EA22FB22F601EE0FD3
:102BF000FF1FEE0FFF1FE35AFA4F4082518262829D
:102C0000738280915A05816080935A058A89823047
:102C100080F08D819E81AF81B885880D991DAA1D98
:102C2000BB1D8093560590935705A0935805B0930C
:102C3000590581E001C080E0DF91CF911F910F9194
:102C4000FF90EF90DF90CF90BF90AF909F908F90CC
:102C50007F906F905F904F9008952F923F924F9288
:102C60005F926F927F928F929F92AF92BF92CF921C
:102C7000DF92EF92FF920F931F93CF93DF93CDB725
:102C8000DEB72F970FB6F894DEBF0FBECDBF1C0185
:102C90004C875D876E877F873B872A87D9014D9058
:102CA0005D906D907C901397411451046104710400
:102CB00031F00894411C511C611C711C10C0FC01B6
:102CC0004080518062807380F1E0FD832C853D85DA
:102CD0004E855F85213031054105510509F01D8282
:102CE000D1011996CD90DD90ED90FC901C97089441
:102CF000C11CD11CE11CF11C530142011E821F8228
:102D000018861986F10181859285A385B4852E8167
:102D10003F8148855985281739074A075B0708F01E
:102D200095C0C814D904EA04FB0450F442E0842E90
:102D3000912CA12CB12C52E0452E512C612C712CE0
:102D4000C101B501A4019E012F5F3F4F0E94921463
:102D5000882309F47BC049815A816B817C81D5012C
:102D6000C4010196A11DB11D4115510561057105F3
:102D700019F02C013D010DC084199509A609B70968
:102D80002C853D854E855F8582179307A407B5077F
:102D900089F08E819F81A885B9850196A11DB11DFD
:102DA0008E839F83A887B9870894811C911CA11CDE
:102DB000B11CA8CFC101A401B5010FEF1FEF2FEF88
:102DC0003FE00E948315882391F440C06801790197
:102DD0000894C108D108E108F108C101B701A601B2
:102DE0000E948315882391F19701860102C0950105
:102DF0008401401651066206730640F3AA85BB851E
:102E00004D915D916D917C9113974115510561052F
:102E1000710539F0C101930182010E948315882355
:102E2000A9F0EA85FB854082518262827382FD812E
:102E3000FF2371F00894411C511C611C711CD101CD
:102E40004D925D926D927C92139702C080E001C01A
:102E500081E02F960FB6F894DEBF0FBECDBFDF9195
:102E6000CF911F910F91FF90EF90DF90CF90BF9087
:102E7000AF909F908F907F906F905F904F903F901A
:102E80002F900895AF92BF92CF92DF92EF92FF9270
:102E90000F931F93CF93DF9300D00F92CDB7DEB780
:102EA0005C016A017B0182E090E0A0E0B0E0F50106
:102EB00080839183A283B383C501B701A6019E01DC
:102EC0002F5F3F4F0E949214882311F1C501B70173
:102ED000A60100E010E098010E9483158823C1F04C
:102EE000C980DA80EB80FC80F5018789803129F484
:102EF00088EF9FEFA0E0B0E004C088EF9FEFAFEF56
:102F0000BFE0C816D906EA06FB06B0F281E001C0B0
:102F100080E00F900F900F900F90DF91CF911F9155
:102F20000F91FF90EF90DF90CF90BF90AF900895FA
:102F30006F927F928F929F92AF92BF92CF92DF92C9
:102F4000EF92FF921F93CF93DF93EC01142F7093B6
:102F50005C0560935B05442381F1453008F005C1B1
:102F600060E070E0CB0140E00E942E14882309F459
:102F7000FCC0E12FF0E0A4E0EE0FFF1FAA95E1F7FF
:102F8000E55FF84F808190E08F779070009709F0AF
:102F9000ECC084859585A685B78584369105A10505
:102FA000B10508F4E2C080849184A284B3848114C2
:102FB0009104A104B10421F4D8C0882499245401B7
:102FC000C501B40140E00E942E14882309F4CDC04D
:102FD000809168059091690522E08030920709F0A0
:102FE000C4C030916D05332309F4BFC080916B05D7
:102FF00090916C05009709F4B8C020916A052223CE
:1030000009F4B3C03A8B2C831D8630E041E050E0D8
:1030100006C0812F8F5F8D87183008F0A6C01D85F0
:10302000CA01012E02C0880F991F0A94E2F72817DF
:10303000390779F78091730590917405009719F01D
:10304000A0E0B0E008C08091810590918205A09138
:103050008305B09184058D839E83AF83B887C0902C
:103060006B05D0906C05EE24FF24C80CD91CEA1C1B
:10307000FB1CCB8ADC8AED8AFE8A60906E0570901C
:103080006F05798E688E20916D0530E040E050E04C
:10309000BC01CD010E94D521DC01CB018C0D9D1D11
:1030A000AE1DBF1D8A8F9B8FAC8FBD8FA301E5E046
:1030B000440F551FEA95E1F741505E4F452F5527C4
:1030C000469560E070E0480F591F6A1F7B1F4E87CE
:1030D0005F87688B798B809170059091710500975F
:1030E00019F0A0E0B0E008C080917D0590917E05C8
:1030F000A0917F05B0918005841A950AA60AB70AA7
:10310000880E991EAA1EBB1E04C0B694A79497945D
:1031100087941A95D2F789869A86AB86BC8685EF06
:1031200088168FE0980680E0A80680E0B80610F4C4
:103130008CE018C025EF82162FEF920620E0A20641
:1031400020E0B20610F480E10DC0809189059091D5
:103150008A05A0918B05B0918C058A8F9B8FAC8FCF
:10316000BD8F80E28F8B81E001C080E0DF91CF9145
:103170001F91FF90EF90DF90CF90BF90AF909F9006
:103180008F907F906F9008950F931F93CF93DF934D
:10319000BC018230910510F462E070E0E091100A09
:1031A000F091110A40E050E0A0E0B0E024C080813E
:1031B000918186179707D0F08617970771F482815F
:1031C0009381109729F013969C938E9312972CC09D
:1031D0009093110A8093100A27C04115510519F0E8
:1031E0008417950718F48D01AC01EF01DF0182818E
:1031F00093819C01F9013097D1F641155105F9F001
:10320000CA01861B970B8430910580F48A819B81CB
:103210000115110521F0F8019383828304C0909376
:10322000110A8093100AFE01329645C0FE01E80F94
:10323000F91F619371930297998388833CC08091B1
:103240000E0A90910F0A892B41F48091BF0490914E
:10325000C00490930F0A80930E0A4091C1045091CC
:10326000C2044115510541F44DB75EB78091BD04CC
:103270009091BE04481B590B20910E0A30910F0A01
:1032800024173507B0F4CA01821B930B86179707E2
:1032900080F0AB014E5F5F4F8417950750F0420FEF
:1032A000531F50930F0A40930E0AF90161937193D3
:1032B00002C0E0E0F0E0CF01DF91CF911F910F91CC
:1032C0000895CF93DF939C01009709F48FC0EC0120
:1032D00022971B821A826091100A7091110A61155F
:1032E000710581F488819981820F931F20910E0AC4
:1032F00030910F0A2817390739F5D0930F0AC09378
:103300000E0A74C0DB0140E050E0AC17BD0708F1C5
:10331000BB83AA83FE0121913191E20FF31FAE1707
:10332000BF0779F48D919C911197280F391F2E5F5B
:103330003F4F3983288312968D919C9113979B83DD
:103340008A834115510571F4D093110AC093100A74
:103350004DC012968D919C911397AD01009711F07D
:10336000DC01D3CFDA011396DC93CE931297FA01E6
:1033700021913191E20FF31FCE17DF0769F48881A5
:103380009981280F391F2E5F3F4FFA013183208327
:103390008A819B8193838283E0E0F0E0DB011296D7
:1033A0008D919C911397009719F0BC01FD01F6CF08
:1033B000AB014E5F5F4FDB018D919C91840F951F98
:1033C00020910E0A30910F0A2817390779F43097A7
:1033D00029F41092110A1092100A02C0138212826C
:1033E0004250504050930F0A40930E0ADF91CF9104
:1033F00008951F920F920FB60F9211242F933F93AF
:103400008F939F93AF93BF938091610790916207D1
:10341000A0916307B0916407309165070196A11DE3
:10342000B11D232F2D5F2D3720F02D570196A11DA3
:10343000B11D209365078093610790936207A09365
:103440006307B093640780915D0790915E07A09138
:103450005F07B09160070196A11DB11D80935D07C4
:1034600090935E07A0935F07B0936007BF91AF9101
:103470009F918F913F912F910F900FBE0F901F90B2
:1034800018958FB7F89420916107309162074091A9
:103490006307509164078FBFB901CA01089501976E
:1034A00039F0880F991F880F991F02970197F1F73C
:1034B0000895789484B5826084BD84B5816084BDAC
:1034C00085B5826085BD85B5816085BDEEE6F0E09D
:1034D000808181608083E1E8F0E0108280818260F9
:1034E0008083808181608083E0E8F0E0808181607A
:1034F0008083E1EBF0E0808184608083E0EBF0E0AA
:10350000808181608083E1E9F0E080818260808356
:10351000808181608083E0E9F0E080818160808348
:10352000E1EAF0E080818260808380818160808335
:10353000E0EAF0E0808181608083E1E2F1E0808177
:1035400082608083808181608083E0E2F1E080811D
:1035500081608083EAE7F0E08081846080838081FD
:1035600082608083808181608083808180688083A5
:103570001092C1000895CF93DF93482F50E0CA0105
:1035800088579E4FFC0134914E5B5E4FFA01849147
:10359000882369F190E0880F991FFC01EC50FF4FE0
:1035A000A591B491FC01E25FFE4FC591D4916623D1
:1035B00051F42FB7F8948C91932F909589238C9385
:1035C000888189230BC0623061F42FB7F8948C9105
:1035D000932F909589238C938881832B88832FBF89
:1035E00006C09FB7F8948C91832B8C939FBFDF917B
:1035F000CF910895893009F449C08A30A0F484300D
:1036000051F1853040F4823079F1833000F581301A
:1036100009F063C026C0873079F1883098F586308C
:1036200009F05BC025C08D3009F442C08E3028F40B
:103630008B30B1F18C30C0F52DC0803109F442C01F
:10364000813109F445C08F3009F047C037C08091FF
:1036500080008F7703C0809180008F7D80938000F1
:10366000089584B58F7702C084B58F7D84BD089599
:103670008091B0008F7703C08091B0008F7D8093E0
:10368000B0000895809190008F7707C080919000DE
:103690008F7D03C080919000877F80939000089574
:1036A0008091A0008F7707C08091A0008F7D03C01C
:1036B0008091A000877F8093A000089580912001D1
:1036C0008F7703C0809120018F7D80932001089522
:1036D00080912001877F809320010895FF920F93AE
:1036E0001F93F62E482F50E0CA0182539E4FFC01D3
:1036F0002491CA0188579E4FFC0114914E5B5E4F86
:10370000FA0104910023C9F0222319F0822F0E94AC
:10371000FA1AE02FF0E0EE0FFF1FE25FFE4FA591D7
:10372000B4919FB7F894FF2021F48C9110958123D8
:1037300002C08C91812B8C939FBF1F910F91FF90A2
:10374000089508951F920F920FB60F920BB60F9225
:1037500011242F933F934F938F939F93EF93FF9356
:103760008091C00082FD1DC04091C6002091A60737
:103770003091A7072F5F3F4F2F7330708091A807BC
:103780009091A9072817390771F0E091A607F091E9
:10379000A707EA59F84F40833093A7072093A6075D
:1037A00002C08091C600FF91EF919F918F914F9140
:1037B0003F912F910F900BBE0F900FBE0F901F9057
:1037C000189508951F920F920FB60F920BB60F9295
:1037D00011242F933F934F938F939F93EF93FF93D6
:1037E0008091C80082FD1DC04091CE0020912E081E
:1037F00030912F082F5F3F4F2F733070809130082A
:10380000909131082817390771F0E0912E08F09156
:103810002F08E251F84F408330932F0820932E0851
:1038200002C08091CE00FF91EF919F918F914F91B7
:103830003F912F910F900BBE0F900FBE0F901F90D6
:10384000189508951F920F920FB60F920BB60F9214
:1038500011242F933F934F938F939F93EF93FF9355
:103860008091D00082FD1DC04091D6002091B60805
:103870003091B7082F5F3F4F2F7330708091B80899
:103880009091B9082817390771F0E091B608F091C6
:10389000B708EA58F74F40833093B7082093B6082B
:1038A00002C08091D600FF91EF919F918F914F912F
:1038B0003F912F910F900BBE0F900FBE0F901F9056
:1038C000189508951F920F920FB60F920BB60F9294
:1038D00011242F933F934F938F939F93EF93FF93D5
:1038E0008091300182FD1DC04091360120913E093A
:1038F00030913F092F5F3F4F2F7330708091400907
:10390000909141092817390771F0E0913E09F09133
:103910003F09E250F74F408330933F0920933E091F
:1039200002C080913601FF91EF919F918F914F914D
:103930003F912F910F900BBE0F900FBE0F901F90D5
:103940001895E0919209F0919309E05CFF4F819105
:10395000919120813181805C9F4F821B930B60E4A9
:1039600070E00E94F421892B11F00E94A11BE091CC
:10397000B409F091B509E05CFF4F819191912081EC
:103980003181805C9F4F821B930B60E470E00E944A
:10399000F421892B11F00E94E11BE091D609F091EE
:1039A000D709E05CFF4F8191919120813181805C4A
:1039B0009F4F821B930B60E470E00E94F421892BDF
:1039C00011F00E94211CE091F809F091F909E05CE6
:1039D000FF4F8191919120813181805C9F4F821BAB
:1039E000930B60E470E00E94F421892B11F00E9497
:1039F000611C08951F920F920FB60F920BB60F9293
:103A000011242F933F938F939F93EF93FF932091D4
:103A1000EA073091EB078091EC079091ED072817AA
:103A2000390731F48091C1008F7D8093C10014C0AB
:103A3000E091EC07F091ED07E655F84F2081809179
:103A4000EC079091ED0701968F7390709093ED07BE
:103A50008093EC072093C600FF91EF919F918F9187
:103A60003F912F910F900BBE0F900FBE0F901F90A4
:103A700018951F920F920FB60F920BB60F9211244A
:103A80002F933F938F939F93EF93FF93209172080F
:103A90003091730880917408909175082817390740
:103AA00031F48091C9008F7D8093C90014C0E091EA
:103AB0007408F0917508EE5CF74F208180917408CE
:103AC0009091750801968F7390709093750880930C
:103AD00074082093CE00FF91EF919F918F913F91B9
:103AE0002F910F900BBE0F900FBE0F901F90189547
:103AF0001F920F920FB60F920BB60F9211242F93B5
:103B00003F938F939F93EF93FF932091FA08309107
:103B1000FB088091FC089091FD082817390731F4C3
:103B20008091D1008F7D8093D10014C0E091FC087A
:103B3000F091FD08E654F74F20818091FC089091A8
:103B4000FD0801968F7390709093FD088093FC0898
:103B50002093D600FF91EF919F918F913F912F91EC
:103B60000F900BBE0F900FBE0F901F9018951F92D5
:103B70000F920FB60F920BB60F9211242F933F9313
:103B80008F939F93EF93FF93209182093091830944
:103B900080918409909185092817390731F4809123
:103BA00031018F7D8093310114C0E0918409F0913F
:103BB0008509EE5BF64F20818091840990918509FB
:103BC00001968F7390709093850980938409209358
:103BD0003601FF91EF919F918F913F912F910F901F
:103BE0000BBE0F900FBE0F901F901895AF92BF9213
:103BF000DF92EF92FF920F931F93CF93DF93EC012D
:103C00007A018B01DD24403081EE580780E068079F
:103C100080E0780711F0DD24D39491E0A92EB12C37
:103C2000EC89FD89DD2069F0C50108A002C0880F7C
:103C3000991F0A94E2F7808360E079E08DE390E0D9
:103C400005C0108260E874E88EE190E0A801970159
:103C50000E940722215030404040504056954795E1
:103C60003795279580E12030380720F0DD2011F0CE
:103C7000DD24D6CFE889F9893083EA89FB8920835E
:103C800019A2EE89FF89408121E030E0C9010C8C46
:103C900002C0880F991F0A94E2F7482B4083EE89EF
:103CA000FF894081C9010D8C02C0880F991F0A94B9
:103CB000E2F7482B4083EE89FF894081C9010E8CD1
:103CC00002C0880F991F0A94E2F7482B4083EE89BF
:103CD000FF8980810F8C02C0220F331F0A94E2F704
:103CE000209528232083DF91CF911F910F91FF9082
:103CF000EF90DF90BF90AF900895DC011C96ED919E
:103D0000FC911D97E05CFF4F819191912081318161
:103D1000805C9F4F821B930B60E470E00E94F42153
:103D20000895DC011C96ED91FC911D97E05CFF4F1E
:103D300020813181E054F040DF01AE5BBF4F8D91B7
:103D40009C9111972817390719F42FEF3FEF07C0FF
:103D50008D919C91E80FF91F8081282F30E0C901D7
:103D60000895DC011C96ED91FC911D97E05CFF4FDE
:103D700020813181E054F040DF01AE5BBF4F8D9177
:103D80009C9111972817390719F42FEF3FEF10C0B6
:103D90008D919C911197E80FF91F20818D919C9135
:103DA000119701968F73907011969C938E9330E0CB
:103DB000C9010895DC0191968C919197882339F07F
:103DC0005496ED91FC915597808186FFF9CF91969D
:103DD0001C920895CF93DF93EC01EE85FF85E05CA4
:103DE000FF4F20813181E054F0402F5F3F4F2F7310
:103DF0003070DF01AE5BBF4F8D919C9111972817FA
:103E00003907D1F3E05CFF4F80819181E054F040AD
:103E1000E80FF91F6083EE85FF85E05CFF4F31837B
:103E20002083EE89FF89208181E090E00F8C02C021
:103E3000880F991F0A94E2F7282B208381E089A339
:103E4000EC89FD8980818064808381E090E0DF914E
:103E5000CF9108951F93109289091092880928EE36
:103E600033E040E050E020938A0930938B0940937F
:103E70008C0950938D0967EC74E070938709609307
:103E8000860986E697E090939309809392098AEADF
:103E900097E0909395098093940985EC90E0909336
:103EA00097098093960984EC90E090939909809308
:103EB000980980EC90E090939B0980939A0981EC9B
:103EC00090E090939D0980939C0982EC90E0909300
:103ED0009F0980939E0986EC90E09093A1098093BE
:103EE000A00914E01093A209B3E0B093A309A7E0DE
:103EF000A093A409F5E0F093A509E1E0E093A609F9
:103F00001092AB091092AA092093AC093093AD0925
:103F10004093AE095093AF097093A9096093A80923
:103F20008EEE97E09093B5098093B40982E398E010
:103F30009093B7098093B6098DEC90E09093B909FE
:103F40008093B8098CEC90E09093BB098093BA09F8
:103F500088EC90E09093BD098093BC0989EC90E0D7
:103F60009093BF098093BE098AEC90E09093C109B9
:103F70008093C0098EEC90E09093C3098093C209AE
:103F80001093C409B093C509A093C609F093C7095B
:103F9000E093C8091092CD091092CC092093CE0964
:103FA0003093CF094093D0095093D1097093CB0936
:103FB0006093CA0986E798E09093D7098093D60961
:103FC0008AEB98E09093D9098093D80985ED90E029
:103FD0009093DB098093DA0984ED90E09093DD09FA
:103FE0008093DC0980ED90E09093DF098093DE09F7
:103FF00081ED90E09093E1098093E00982ED90E0FB
:104000009093E3098093E20986ED90E09093E509AF
:104010008093E4091093E609B093E709A093E809B7
:10402000F093E909E093EA091092EF091092EE0982
:104030002093F0093093F1094093F2095093F3096A
:104040007093ED096093EC098EEF98E09093F90975
:104050008093F80982E499E09093FB098093FA0930
:1040600085E391E09093FD098093FC0984E391E05E
:104070009093FF098093FE0980E391E09093010AF9
:104080008093000A81E391E09093030A8093020AEF
:1040900082E391E09093050A8093040A86E391E01D
:1040A0009093070A8093060A1093080AB093090AAE
:1040B000A0930A0AF0930B0AE0930C0A1F9108954B
:1040C0000895CF93DF930E94591A0E9460200E94A6
:1040D0000C05C1EADCE10E9449062097E1F30E9449
:1040E000A11CF9CF0895CF92DF92EF92FF920F9328
:1040F0001F93CF93DF937C016B018A01C0E0D0E076
:104100000FC0D6016D916D01D701ED91FC91019029
:10411000F081E02DC7011995C80FD91F015010403B
:104120000115110571F7CE01DF91CF911F910F910C
:10413000FF90EF90DF90CF900895EF92FF920F9352
:104140001F938C01DC01ED91FC910190F081E02D39
:104150006DE019957C01D801ED91FC910190F08101
:10416000E02DC8016AE019959C012E0D3F1DC90183
:104170001F910F91FF90EF900895CF93DF93EC0183
:104180006115710519F420E030E00FC0DB010D90DE
:104190000020E9F71197A61BB70BE881F98102808F
:1041A000F381E02DAD0119959C01C901DF91CF91FB
:1041B00008954F925F927F928F929F92AF92BF929B
:1041C000CF92DF92EF92FF920F931F93DF93CF93E3
:1041D000CDB7DEB7A1970FB6F894DEBF0FBECDBF47
:1041E0002C01742ECB01223008F42AE019A231E20E
:1041F000C32ED12CCC0EDD1E822E9924AA24BB24E2
:10420000672D752FA50194010E94072279018A016B
:10421000C801B701A50194010E94D521472D461B75
:104220000894C108D1084A3014F4405D01C0495CCB
:10423000F6014083E114F1040105110521F07E2C03
:104240005F2DC801DDCFC201B6010E94BD20A1963D
:104250000FB6F894DEBF0FBECDBFCF91DF911F9197
:104260000F91FF90EF90DF90CF90BF90AF909F9015
:104270008F907F905F904F900895DC01211531055C
:1042800041F4ED91FC910190F081E02D642F19959E
:1042900008950E94D9200895EF92FF920F931F93E3
:1042A0007C010E943D218C01C7010E949D209C0140
:1042B000200F311FC9011F910F91FF90EF900895BA
:1042C000CF92DF92EF92FF920F931F93CF93DF93E2
:1042D000EC016A017B012115310541F4E881F98186
:1042E0000190F081E02D642F19951FC02A3031050F
:1042F000D1F477FF17C0E881F9810190F081E02DBA
:104300006DE219958C0144275527BA014C195D09B6
:104310006E097F09CE012AE00E94D9209801280F5A
:10432000391F04C02AE00E94D9209C01C901DF91F5
:10433000CF911F910F91FF90EF90DF90CF90089554
:10434000CF92DF92EF92FF920F931F936C017B014C
:104350009A010027F7FC0095102FB801A7010E94D1
:1043600060218C01C6010E949D20080F191FC80101
:104370001F910F91FF90EF90DF90CF9008950E94D2
:10438000BD200895EF92FF920F931F937C010E942E
:10439000BD208C01C7010E949D20080F191FC80174
:1043A0001F910F91FF90EF900895629FD001739F2E
:1043B000F001829FE00DF11D649FE00DF11D929FC1
:1043C000F00D839FF00D749FF00D659FF00D992700
:1043D000729FB00DE11DF91F639FB00DE11DF91F24
:1043E000BD01CF011124089597FB092E07260AD09D
:1043F00077FD04D02ED006D000201AF47095619578
:104400007F4F0895F6F7909581959F4F0895A1E20B
:104410001A2EAA1BBB1BFD010DC0AA1FBB1FEE1F3E
:10442000FF1FA217B307E407F50720F0A21BB30B89
:10443000E40BF50B661F771F881F991F1A9469F705
:1044400060957095809590959B01AC01BD01CF0161
:104450000895AA1BBB1B51E107C0AA1FBB1FA617CB
:10446000B70710F0A61BB70B881F991F5A95A9F71D
:1044700080959095BC01CD0108950790F691E02DAF
:104480001994FB01DC0104C08D910190801921F485
:1044900041505040C8F7881B990B0895FC01819149
:1044A000861721F08823D9F7992708953197CF01EE
:1044B0000895FB01DC014150504048F001900D92FD
:1044C0000020C9F701C01D9241505040E0F7089507
:1044D00012E0CAE1D2E000E006C022970109FE0125
:1044E0000BBF0E943D22CC31D10780E00807A9F71D
:0644F0001BBEF894FFCF93
:1044F60054686520636F6465206973206469666625
:104506006572656E74210054686520636F6465206A
:104516006973207468652073616D652100436F645B
:104526006520706C61796564207375636365737368
:1045360066756C6C7921004E6F20636F6465207020
:104546006C6179656421002D2D2D2D2D2D2D2D2DA0
:104556002D2D2D2D2D2D2D2D2D205265706F727424
:10456600202D2D2D2D2D2D2D2D2D2D2D2D2D2D2D82
:104576002D2D2D0047656E6572616C20696E666F24
:10458600726D6174696F6E3A006B485A3A004B68F7
:104596007A3A2000436F64657320696E666F726DA8
:1045A6006174696F6E3A00436F646573206361706E
:1045B60074757265643A20002D2D2D2D2D2D2D2D0F
:1045C6002D2D2D2D2D2D2D2D2D2D00466F72204993
:1045D600443A2000547275652074696D653A20006E
:1045E60046616C73652074696D653A20004E6F20D4
:1045F600636F6465207465616368656420796574BA
:104606002120506C6561736520746563682061675D
:1046160061696E210054696D65206F75742E205492
:10462600727920616761696E21004D6178696D75E7
:104636006D20616D6F756E74207265616368656467
:10464600212054686520636F646520697320626960
:1046560067676572207468616E20746865206D6195
:1046660078696D756D20616C6C6F77656421205477
:10467600727920616761696E2100537461727420DA
:104686007465616368696E672E20506C6561736539
:1046960020707265737320746865204952206275B4
:1046A60074746F6E21005465616368656420537588
:1046B600636365737366756C6C7921004469646E17
:1046C600277420546561636820537563636573734B
:1046D60066756C6C79210000000000A504496E69BE
:1046E6007469616C697A696E6720534420636172EC
:1046F600642E2E2E00696E697469616C697A617424
:10470600696F6E206661696C65642100696E697403
:1047160069616C697A6174696F6E20646F6E652E6B
:10472600004F70656E696E67206578616D706C65A7
:104736002E6462202E2E2E005465737444422E641D
:1047460062005265636F726420436F756E743A201F
:10475600004372656174696E67205265636F7264A7
:10476600732E2E2E0049443A200054656D703A206F
:104776000000000000540672066C07A606B1066A21
:1047860006000000007220732072207220722072D0
:10479600202F0000000000DF137320FFFFFFFF6ED5
:1047A600616E00696E66006F7666002E00800012EC
:1047B6000A000000000000EA1E73207D1EB11E9153
:0447C6001EDA1E00D9
:00000001FF
