S00D000054657374652E7372656312
S11300000C9462000C948A000C948A000C948A006C
S11300100C948A000C948A000C948A000C948A0034
S11300200C948A000C948A000C948A000C948A0024
S11300300C948A000C948A000C948A000C948A0014
S11300400C94AA020C948A000C941E040C946C0464
S11300500C948A000C948A000C948A000C948A00F4
S11300600C948A000C948A000000000024002700ED
S11300702A0000000000250028002B0000000000DA
S113008023002600290004040404040404040202D6
S11300900202020203030303030301020408102003
S11300A0408001020408102001020408102000000E
S11300B00007000201000003040600000000000025
S11300C00000D80511241FBECFEFD8E0DEBFCDBF9E
S11300D015E0A0E0B1E0EEEFFDE002C005900D9266
S11300E0A433B107D9F716E0A4E3B5E001C01D922B
S11300F0A330B107E1F710E0C4ECD0E004C02297CC
S1130100FE010E94F906C23CD107C9F70E942E06DF
S11301100C94FD060C9400006F927F928F929F9234
S1130120AF92BF92CF92DF92EF92FF920F931F9301
S1130130CF93DF930F92CDB7DEB7F82E4A01690152
S1130140F9011182108281E0A82EB12C062E02C082
S1130150AA0CBB1C0A94E2F716C0F60180819181B7
S11301608815990520F01182108280E021C0C80111
S113017069830E94F202F60180819181800F911FB0
S113018091838083698189B190E0FF2029F08A21DD
S11301909B21009749F40BC0062E02C095958795C4
S11301A00A94E2F780FD03C0EE2069F3D6CF81E024
S11301B00F90DF91CF911F910F91FF90EF90DF90FF
S11301C0CF90BF90AF909F908F907F906F90089545
S11301D03F924F925F926F927F928F929F92AF92D3
S11301E0BF92CF92DF92EF92FF920F931F93CF9320
S11301F0DF93382ED62ECA01B901E801188219827C
S11302001A821B8201E010E00D2C02C0000F111FA6
S11302100A94E2F728EE33E040E050E00E94B6068C
S11302204B015C012701662457FC6094762C1EC0A8
S113023088819981AA81BB8188159905AA05BB0586
S113024030F0188219821A821B8280E024C0C70110
S11302500E94F20288819981AA81BB81840D951D37
S1130260A61DB71D88839983AA83BB8389B190E0B7
S1130270332029F080239123009749F40BC00D2CDF
S113028002C0959587950A94E2F780FD03C0CC20BF
S113029069F3CECF81E0DF91CF911F910F91FF9051
S11302A0EF90DF90CF90BF90AF909F908F907F9012
S11302B06F905F904F903F9008952F923F924F928E
S11302C05F926F927F928F929F92AF92BF92CF92E2
S11302D0DF92EF92FF920F931F93CF93DF9300D09F
S11302E000D0CDB7DEB75C012B011901FC01E95642
S11302F0FE4F7080662463946724FC011282168288
S11303001582872D4423A9F028E833E140E050E02A
S11303108E010F5F1F4FFEE1EF2EF12CCC24C3940E
S11303200E94E800882391F481EE95E065E272E092
S11303301AC028E833E140E050E08E010F5F1F4F00
S1130340EEE1EE2EF12CCC240E94E80088249924BE
S11303508214930464F0F50112821682158281EEF0
S113036095E06AE372E00E94A30680E038C064016D
S1130370CC0CDD1CCC0CDD1C9601295F3F4F2A0DF3
S11303803B1D862DB20148EE5DEF0EE110E0EE2438
S1130390E3940E948C00882331F481E0F501828388
S11303A0968285821CC09601275F3F4F2A0D3B1D14
S11303B0872DB20148EE5DEF0EE110E0EE24E394E8
S11303C00E948C0094012F5F3F4F882331F481E019
S11303D0F50182833683258302C04901B9CF0F908A
S11303E00F900F900F90DF91CF911F910F91FF907D
S11303F0EF90DF90CF90BF90AF909F908F907F90C1
S11304006F905F904F903F902F9008950F931F939C
S1130410CF93DF93EC018B0181EE95E06AE872E003
S11304200E94A306CE01B80141E024E630E00E9418
S11304305D01882329F081EE95E066EB72E004C04B
S113044081EE95E06CEC72E00E94A306DF91CF91FF
S11304501F910F91089581EE95E040E855E260E028
S113046070E00E94A7048091F70260E00E943703C5
S11304708091ED0260E00E9437038091ED0260E01C
S11304800E9437038091F50261E00E943703809156
S1130490F30261E00E9437038091F10261E00E945F
S11304A037038091EF0261E00E9437030895809141
S11304B0F7020E94CA0380934F058091ED020E94C7
S11304C0CA0380934B058FE060E00E9437038FE0FE
S11304D00E94CA0380934A058091F50260914E05FB
S11304E00E9476038091F30260914D050E94760389
S11304F08091F10260914C050E9476038091EF0295
S113050060914A050E94760308950F931F93CF9339
S1130510DF93EC018B0181EE95E069EF72E00E94BC
S1130520A306CE01B80141E028EC30E00E945D0151
S1130530882329F081EE95E065E273E004C081EE42
S113054095E06BE373E00E94A306DF91CF911F91C6
S11305500F9108951F920F920FB60F9211242F93AB
S11305603F938F939F93AF93BF9380915405909142
S11305705505A0915605B09157053091580501963F
S1130580A11DB11D232F2D5F2D3720F02D5701966E
S1130590A11DB11D209358058093540590935505D2
S11305A0A0935605B093570580915005909151053D
S11305B0A0915205B09153050196A11DB11D8093E0
S11305C0500590935105A0935205B0935305BF91E4
S11305D0AF919F918F913F912F910F900FBE0F90EC
S11305E01F901895019739F0880F991F880F991F4C
S11305F002970197F1F70895789484B5826084BDD9
S113060084B5816084BD85B5826085BD85B5816012
S113061085BDEEE6F0E0808181608083E1E8F0E072
S11306201082808182608083808181608083E0E8A1
S1130630F0E0808181608083E1EBF0E08081846080
S11306408083E0EBF0E0808181608083EAE7F0E082
S113065080818460808380818260808380818160E6
S113066080838081806880831092C1000895CF9335
S1130670DF93482F50E0CA0186569F4FFC01349106
S11306804A575F4FFA018491882369F190E0880FFB
S1130690991FFC01E859FF4FA591B491FC01EE5854
S11306A0FF4FC591D491662351F42FB7F8948C91E0
S11306B0932F909589238C93888189230BC0623072
S11306C061F42FB7F8948C91932F909589238C9390
S11306D08881832B88832FBF06C09FB7F8948C91A1
S11306E0832B8C939FBFDF91CF910895482F50E0C7
S11306F0CA0182559F4FFC012491CA0186569F4F1F
S1130700FC0194914A575F4FFA013491332309F461
S113071040C0222351F1233071F0243028F42130D9
S1130720A1F0223011F514C02630B1F02730C1F009
S11307302430D9F404C0809180008F7703C0809165
S113074080008F7D8093800010C084B58F7702C0B5
S113075084B58F7D84BD09C08091B0008F7703C0BC
S11307608091B0008F7D8093B000E32FF0E0EE0F16
S1130770FF1FEE58FF4FA591B4912FB7F89466234D
S113078021F48C919095892302C08C91892B8C93B0
S11307902FBF0895682F70E0CB0182559F4FFC0155
S11307A02491CB0186569F4FFC0144916A577F4F99
S11307B0FB019491992319F420E030E03CC02223FA
S11307C051F1233071F0243028F42130A1F022308B
S11307D011F514C02630B1F02730C1F02430D9F41B
S11307E004C0809180008F7703C0809180008F7D4A
S11307F08093800010C084B58F7702C084B58F7D4C
S113080084BD09C08091B0008F7703C08091B0008F
S11308108F7D8093B000892F90E0880F991F8458B2
S11308209F4FFC01A591B4918C9120E030E084238A
S113083011F021E030E0C901089508951F920F924C
S11308400FB60F9211242F933F934F938F939F933F
S1130850EF93FF938091C00082FD1DC04091C600BC
S11308602091990530919A052F5F3F4F2F73307077
S113087080919B0590919C052817390771F0E091B0
S11308809905F0919A05E75AFA4F408330939A05F7
S11308902093990502C08091C600FF91EF919F912A
S11308A08F914F913F912F910F900FBE0F901F90FA
S11308B01895E091ED05F091EE05E05CFF4F819114
S11308C0919120813181821B930B8F739070892BBE
S11308D011F00E941D0408951F920F920FB60F92FB
S11308E011242F933F938F939F93EF93FF93209122
S11308F0DD053091DE058091DF059091E005281734
S1130900390731F48091C1008F7D8093C10014C0F8
S1130910E091DF05F091E005E356FA4F20818091E4
S1130920DF059091E00501968F7390709093E00538
S11309308093DF052093C600FF91EF919F918F91E3
S11309403F912F910F900FBE0F901F901895AF926B
S1130950BF92DF92EF92FF920F931F93CF93DF9397
S1130960EC017A018B01DD24403081EE580780E0F0
S1130970680780E0780711F0DD24D39491E0A92E74
S1130980B12CEC89FD89DD2069F0C50108A002C005
S1130990880F991F0A94E2F7808360E079E08DE381
S11309A090E005C0108260E874E88EE190E0A80150
S11309B097010E94D5062150304040405040569542
S11309C047953795279580E12030380720F0DD20C2
S11309D011F0DD24D6CFE889F9893083EA89FB89CF
S11309E0208319A2EE89FF89408121E030E0C9010A
S11309F00C8C02C0880F991F0A94E2F7482B40839D
S1130A00EE89FF894081C9010D8C02C0880F991FAE
S1130A100A94E2F7482B4083EE89FF894081C9019B
S1130A200E8C02C0880F991F0A94E2F7482B40836A
S1130A30EE89FF8980810F8C02C0220F331F0A9434
S1130A40E2F7209528232083DF91CF911F910F9106
S1130A50FF90EF90DF90BF90AF900895DC011C965B
S1130A60ED91FC911D97E05CFF4F219131918081C4
S1130A709181281B390B2F733070C9010895DC0153
S1130A801C96ED91FC911D97E05CFF4F2081318114
S1130A90E054F040DF01AE5BBF4F8D919C91119704
S1130AA02817390719F42FEF3FEF07C08D919C9158
S1130AB0E80FF91F8081282F30E0C9010895DC0177
S1130AC01C96ED91FC911D97E05CFF4F20813181D4
S1130AD0E054F040DF01AE5BBF4F8D919C911197C4
S1130AE02817390719F42FEF3FEF10C08D919C910F
S1130AF01197E80FF91F20818D919C911197019610
S1130B008F73907011969C938E9330E0C901089571
S1130B10DC0191968C919197882339F05496ED914C
S1130B20FC915597808186FFF9CF91961C92089588
S1130B30CF93DF93EC01EE85FF85E05CFF4F2081CE
S1130B403181E054F0402F5F3F4F2F733070DF014D
S1130B50AE5BBF4F8D919C91119728173907D1F344
S1130B60E05CFF4F80819181E054F040E80FF91F71
S1130B706083EE85FF85E05CFF4F31832083EE893F
S1130B80FF89208181E090E00F8C02C0880F991FBB
S1130B900A94E2F7282B208381E089A3EC89FD895C
S1130BA080818064808381E090E0DF91CF9108951B
S1130BB01092E4051092E30588EE93E0A0E0B0E023
S1130BC08093E5059093E605A093E705B093E805C7
S1130BD088E295E09093E2058093E10589E595E04C
S1130BE09093EE058093ED058DE995E09093F005E3
S1130BF08093EF0585EC90E09093F2058093F105E6
S1130C0084EC90E09093F4058093F30580EC90E0FD
S1130C109093F6058093F50581EC90E09093F805A8
S1130C208093F70582EC90E09093FA058093F905A0
S1130C3086EC90E09093FC058093FB0584E0809320
S1130C40FD0583E08093FE0587E08093FF0585E042
S1130C508093000681E0809301060895CF93DF938B
S1130C600E94FC020E942B02C9E5D4E00E945702B4
S1130C702097E1F30E945904F9CFCF92DF92EF92CB
S1130C80FF920F931F93CF93DF937C016B018A0133
S1130C90C0E0D0E00FC0D6016D916D01D701ED9198
S1130CA0FC910190F081E02DC7010995C80FD91F6F
S1130CB0015010400115110571F7CE01DF91CF915C
S1130CC01F910F91FF90EF90DF90CF900895EF92D6
S1130CD0FF920F931F938C01DC01ED91FC91019025
S1130CE0F081E02D6DE009957C01D801ED91FC9136
S1130CF00190F081E02DC8016AE009959C012E0D58
S1130D003F1DC9011F910F91FF90EF900895CF935C
S1130D10DF93EC016115710519F420E030E00FC098
S1130D20DB010D900020E9F71197A61BB70BE881B2
S1130D30F9810280F381E02DAD0109959C01C9017F
S1130D40DF91CF910895EF92FF920F931F937C014F
S1130D500E9487068C01C7010E946706080F191FAD
S1130D60C8011F910F91FF90EF900895629FD001E9
S1130D70739FF001829FE00DF11D649FE00DF11D52
S1130D80929FF00D839FF00D749FF00D659FF00D01
S1130D909927729FB00DE11DF91F639FB00DE11DEE
S1130DA0F91FBD01CF0111240895A1E21A2EAA1B37
S1130DB0BB1BFD010DC0AA1FBB1FEE1FFF1FA21707
S1130DC0B307E407F50720F0A21BB30BE40BF50B04
S1130DD0661F771F881F991F1A9469F7609570958D
S1130DE0809590959B01AC01BD01CF010895EE0F54
S1110DF0FF1F0590F491E02D0994F894FFCFB5
S1130DFE54686520636F6465206973206469666650
S1130E0E6572656E74210054686520636F64652095
S1130E1E6973207468652073616D652100436F6486
S1130E2E6520706C61796564207375636365737393
S1130E3E66756C6C7921004E6F20636F646520704B
S1130E4E6C6179656421002D2D2D2D2D2D2D2D2DCB
S1130E5E2D2D2D2D2D2D2D2D2D205265706F72744F
S1130E6E202D2D2D2D2D2D2D2D2D2D2D2D2D2D2DAD
S1130E7E2D2D2D0047656E6572616C20696E666F4F
S1130E8E726D6174696F6E3A006B485A3A004B6822
S1130E9E7A3A2000436F64657320696E666F726DD3
S1130EAE6174696F6E3A00436F6465732063617099
S1130EBE74757265643A20002D2D2D2D2D2D2D2D3A
S1130ECE2D2D2D2D2D2D2D2D2D2D00466F722049BE
S1130EDE443A2000547275652074696D653A200099
S1130EEE46616C73652074696D653A20004E6F20FF
S1130EFE636F6465207465616368656420796574E5
S1130F0E2120506C65617365207465636820616788
S1130F1E61696E210054696D65206F75742E2054BD
S1130F2E727920616761696E21004D6178696D7512
S1130F3E6D20616D6F756E74207265616368656492
S1130F4E212054686520636F64652069732062698B
S1130F5E67676572207468616E20746865206D61C0
S1130F6E78696D756D20616C6C6F776564212054A2
S1130F7E727920616761696E210053746172742005
S1130F8E7465616368696E672E20506C6561736564
S1130F9E20707265737320746865204952206275DF
S1130FAE74746F6E210054656163686564205375B3
S1130FBE636365737366756C6C7921004469646E42
S1130FCE2774205465616368205375636365737376
S1130FDE66756C6C79210000000000060202000D9B
S1130FEE000500040003000600537461727420743B
S1130FFE65616368696E672E20506C656173652048
S113100E707265737320746865204952206275741A
S113101E746F6E2100546561636865642053756353
S113102E6365737366756C6C7921004469646E270D
S113103E74205465616368205375636365737366C6
S113104E756C6C7921000000000006028502535471
S113105E415455530909203D2030782530327820EB
S113106E52585F44523D25782054585F44533D25D1
S113107E78204D41585F52543D25782052585F5088
S113108E5F4E4F3D25782054585F46554C4C3D25B8
S113109E780D0A004F4253455256455F54583D252C
S11310AE3032783A20504F4C535F434E543D25789E
S11310BE204152435F434E543D25780D0A0025735B
S11310CE092563203D0020307825303278000D004C
S11310DE20307800253032780052585F4144445213
S11310EE5F50302D310052585F414444525F5032AC
S11310FE2D350054585F414444520052585F5057A6
S113110E5F50302D3600454E5F414100454E5F52D3
S113111E58414444520052465F43480052465F537E
S113112E4554555000434F4E4649470044594E507E
S113113E442F464541545552450044617461205232
S113114E61746509203D2025530D0A004D6F6465B9
S113115E6C0909203D2025530D0A00435243204CAF
S113116E656E67746809203D2025530D0A005041B1
S113117E20506F77657209203D2025530D0A00B962
S113118E04BF04C504CD04D604E004E904F004F855
S113119E04FF0406050D050A0B0C0D0E0F11121398
S11311AE141516000102030405314D42505300324A
S11311BE4D425053003235304B425053006E52461E
S11311CE32344C3031006E524632344C30312B00B6
S11311DE44697361626C65640038206269747300DB
S11311EE313620626974730050415F4D494E005090
S11311FE415F4C4F57004C415F4D45440050415F99
S113120E48494748006E616E00696E66006F7666E7
S113121E002E00000000000098053D062E055F0517
S107122E3F058805E7
S9030000FC
