S00D000054657374652E7372656312
S11300000C9463000C948B000C948B000C948B0068
S11300100C948B000C948B000C948B000C948B0030
S11300200C948B000C948B000C948B000C948B0020
S11300300C948B000C948B000C948B000C948B0010
S11300400C9436040C948B000C9403060C94510607
S11300500C948B000C948B000C948B000C948B00F0
S11300600C948B000C948B000000000024002700EB
S11300702A0000000000250028002B0000000000DA
S113008023002600290004040404040404040202D6
S11300900202020203030303030301020408102003
S11300A0408001020408102001020408102000000E
S11300B00007000201000003040600000000000025
S11300C000002F04BD0711241FBECFEFD8E0DEBF10
S11300D0CDBF13E0A0E0B1E0EAEFF3E102C0059088
S11300E00D92A831B107D9F715E0A8E1B3E001C03A
S11300F01D92AE36B107E1F710E0C6ECD0E004C0C3
S11301002297FE010E94F709C23CD107C9F70E9459
S113011013080C94FB090C9400006F927F928F9249
S11301209F92AF92BF92CF92DF92EF92FF920F9382
S11301301F93CF93DF930F92CDB7DEB7F82E4A010A
S11301406901F9011182108281E0A82EB12C062EDA
S113015002C0AA0CBB1C0A94E2F716C0F601808107
S113016091818815990520F01182108280E021C0C8
S1130170C80169830E94D704F60180819181800FB0
S1130180911F91838083698189B190E0FF2029F0D8
S11301908A219B21009749F40BC0062E02C0959535
S11301A087950A94E2F780FD03C0EE2069F3D6CF69
S11301B081E00F90DF91CF911F910F91FF90EF900D
S11301C0DF90CF90BF90AF909F908F907F906F9073
S11301D008953F924F925F926F927F928F929F9277
S11301E0AF92BF92CF92DF92EF92FF920F931F9341
S11301F0CF93DF93382ED62ECA01B901E8011882B5
S113020019821A821B8201E010E00D2C02C0000F3B
S1130210111F0A94E2F728EE33E040E050E00E9418
S11302208D094B015C012701662457FC6094762CF0
S11302301EC088819981AA81BB8188159905AA0568
S1130240BB0530F0188219821A821B8280E024C018
S1130250C7010E94D70488819981AA81BB81840D3A
S1130260951DA61DB71D88839983AA83BB8389B175
S113027090E0332029F080239123009749F40BC0A8
S11302800D2C02C0959587950A94E2F780FD03C072
S1130290CC2069F3CECF81E0DF91CF911F910F91F4
S11302A0FF90EF90DF90CF90BF90AF909F908F9092
S11302B07F906F905F904F903F9008950F931F939E
S11302C0CF93DF93EC018B018CE495E040E855E299
S11302D060E070E00E948C061A830983CB56DE4FDF
S11302E081E08883DF91CF911F910F9108957F92D0
S11302F08F929F92AF92BF92CF92DF92EF92FF9232
S11303000F931F93CF93DF934A015B01722EB801C1
S113031088EE93E00E94AC09CB01069762E070E09E
S11303200E94AC09EB01CB010396880F991F6C0165
S1130330EE24D7FCE094FE2CF094E094D094C09486
S1130340C11CD11CE11CF11C12C0872D61E00E946C
S11303505B05CE010E94D704872D60E00E945B05F7
S1130360CE010E94D7048C0C9D1CAE1CBF1C18141B
S113037019041A041B044CF3DF91CF911F910F91C0
S1130380FF90EF90DF90CF90BF90AF909F908F90B1
S11303907F900895AF92BF92CF92DF92EF92FF9237
S11303A00F931F93CF93DF93EC015B018881882324
S11303B029F17E01CC24DD2413C0F701418152814F
S11303C060E070E009811A81CE0195010E947701F5
S11303D0F701838194810E94D7040894C11CD11C25
S11303E084E090E0E80EF91E8B819C81C816D90642
S11303F024F38CE495E06DE271E004C08CE495E0B4
S113040067E471E00E947A09DF91CF911F910F9107
S1130410FF90EF90DF90CF90BF90AF900895EF9250
S1130420FF920F931F93CF93DF93EC018CE495E03D
S113043067E571E00E947A098CE495E064E871E074
S11304400E947A098CE495E069E971E00E947709D9
S113045069817A818CE495E04AE050E00E94580971
S11304608CE495E06EE971E00E94770969817A81F4
S11304708CE495E04AE050E00E9458098CE495E051
S113048064EA71E00E947A098881882309F44EC0E5
S11304908CE495E067EB71E00E9477096B817C81C5
S11304A08CE495E04AE050E00E9458098E01EE2465
S11304B0FF2434C08CE495E068EC71E00E947A0972
S11304C08CE495E06BED71E00E9477098CE495E093
S11304D0B7014AE050E00E9458098CE495E064EECC
S11304E071E00E947709F801618172818CE495E0E2
S11304F04AE050E00E94FB088CE495E060EF71E074
S11305000E947709F801638174818CE495E04AE0E4
S113051050E00E94FB080894E11CF11C0C5F1F4F83
S11305208B819C81E816F9062CF206C08CE495E0D8
S11305306DEF71E00E947A098CE495E067E571E063
S11305400E947A0964EF71E080E090E00E947E04EA
S1130550DF91CF911F910F91FF90EF9008954F92EB
S11305605F926F927F928F929F92AF92BF92CF923F
S1130570DF92EF92FF920F931F93CF93DF9300D0FC
S113058000D0CDB7DEB75C012B01FC01EB56FE4F6A
S11305907080662463946724FC01108214821382A1
S11305A0872D4423A9F028E833E140E050E08E0190
S11305B00F5F1F4FFEE1EF2EF12CCC24C3940E9459
S11305C0E900882391F48CE495E065E272E018C0B8
S11305D028E833E140E050E08E010F5F1F4FEEE169
S11305E0EE2EF12CCC240E94E900882499240CC01E
S11305F0F5011082148213828CE495E06AE372E0C0
S11306000E947A0980E035C06401CC0CDD1CCC0C5E
S1130610DD1C96012B5F3F4F2A0D3B1D862DB20139
S113062048EE5DEF0EE110E0EE24E3940E948D00AD
S11306308823A1F09601295F3F4F2A0D3B1D872D8A
S1130640B20148EE5DEF0EE110E0EE24E3940E9467
S11306508D000894811C911C882331F481E0F501FC
S113066080839482838205C0F4E68F16910461F638
S1130670BFCF0F900F900F900F90DF91CF911F91EC
S11306800F91FF90EF90DF90CF90BF90AF909F902D
S11306908F907F906F905F904F9008950F931F936A
S11306A0CF93DF93EC018B018CE495E06AE872E070
S11306B00E947A09CE01B80141E00E94AF0288236A
S11306C029F08CE495E066EB72E004C08CE495E0DC
S11306D06CEC72E00E947A09DF91CF911F910F9127
S11306E008958CE495E040E855E260E070E00E94F3
S11306F08C068091F70260E00E941C058091F5024F
S113070060E00E941C058091F30260E00E941C05D9
S11307108091E90260E00E941C058091F10261E091
S11307200E941C058091EF0261E00E941C058091EB
S1130730ED0261E00E941C058091EB0261E00E94E1
S11307401C058091E70261E00E941C0508958091D8
S1130750F7020E94AF058093BA048091F5020E94CB
S1130760AF058093B9048091F3020E94AF05809392
S1130770B8048091E9020E94AF058093B30421E09C
S113078030E08091B104882311F020E030E08091C2
S1130790BA0490E082239323009751F01092AD04A1
S11307A06091E9027091EA0288E193E00E944E03AD
S11307B08091BA048093B10421E030E08091B004C8
S11307C0882311F020E030E08091B90490E0822386
S11307D09323009741F06091E7027091E80288E169
S11307E093E00E94CA018091B9048093B00421E08F
S11307F030E08091AF04882311F020E030E0809154
S1130800B80490E082239323009721F088E193E0D9
S11308100E940F029091B8049093AF048091B904A0
S1130820892321F088E193E00E940F028091F10274
S11308306091B7040E945B058091EF026091B60459
S11308400E945B058091ED026091B5040E945B05F6
S11308508091EB026091B4040E945B05089588E1E5
S113086093E066E270E00E945E0108951F920F9289
S11308700FB60F9211242F933F938F939F93AF93AF
S1130880BF938091BF049091C004A091C104B09122
S1130890C2043091C3040196A11DB11D232F2D5F05
S11308A02D3720F02D570196A11DB11D2093C304AF
S11308B08093BF049093C004A093C104B093C20476
S11308C08091BB049091BC04A091BD04B091BE047E
S11308D00196A11DB11D8093BB049093BC04A09309
S11308E0BD04B093BE04BF91AF919F918F913F918E
S11308F02F910F900FBE0F901F9018959B01AC0184
S11309007FB7F8948091BB049091BC04A091BD047E
S1130910B091BE0466B5A89B05C06F3F19F001965F
S1130920A11DB11D7FBFBA2FA92F982F8827860F2D
S1130930911DA11DB11D62E0880F991FAA1FBB1F45
S11309406A95D1F7BC012DC0FFB7F8948091BB0420
S11309509091BC04A091BD04B091BE04E6B5A89BDF
S113096005C0EF3F19F00196A11DB11DFFBFBA2FBD
S1130970A92F982F88278E0F911DA11DB11DE2E08C
S1130980880F991FAA1FBB1FEA95D1F7861B970BE7
S1130990885E9340C8F22150304040405040685136
S11309A07C4F211531054105510571F608950197D4
S11309B039F0880F991F880F991F02970197F1F753
S11309C00895789484B5826084BD84B5816084BDC3
S11309D085B5826085BD85B5816085BDEEE6F0E0B4
S11309E0808181608083E1E8F0E010828081826010
S11309F08083808181608083E0E8F0E08081816091
S1130A008083E1EBF0E0808184608083E0EBF0E0C0
S1130A10808181608083EAE7F0E080818460808364
S1130A20808182608083808181608083808180680E
S1130A3080831092C1000895CF93DF93482F50E034
S1130A40CA0186569F4FFC0134914A575F4FFA0101
S1130A508491882369F190E0880F991FFC01E8597B
S1130A60FF4FA591B491FC01EE58FF4FC591D4916D
S1130A70662351F42FB7F8948C91932F9095892382
S1130A808C93888189230BC0623061F42FB7F8946A
S1130A908C91932F909589238C938881832B8883C1
S1130AA02FBF06C09FB7F8948C91832B8C939FBF64
S1130AB0DF91CF910895482F50E0CA0182559F4F8E
S1130AC0FC012491CA0186569F4FFC0194914A5718
S1130AD05F4FFA013491332309F440C0222351F1CA
S1130AE0233071F0243028F42130A1F0223011F5A4
S1130AF014C02630B1F02730C1F02430D9F404C03A
S1130B00809180008F7703C0809180008F7D8093D7
S1130B10800010C084B58F7702C084B58F7D84BDFA
S1130B2009C08091B0008F7703C08091B0008F7DA1
S1130B308093B000E32FF0E0EE0FFF1FEE58FF4F5D
S1130B40A591B4912FB7F894662321F48C919095D4
S1130B50892302C08C91892B8C932FBF0895682F11
S1130B6070E0CB0182559F4FFC012491CB01865646
S1130B709F4FFC0144916A577F4FFB019491992345
S1130B8019F420E030E03CC0222351F1233071F00D
S1130B90243028F42130A1F0223011F514C026307D
S1130BA0B1F02730C1F02430D9F404C08091800022
S1130BB08F7703C0809180008F7D8093800010C068
S1130BC084B58F7702C084B58F7D84BD09C08091C0
S1130BD0B0008F7703C08091B0008F7D8093B00008
S1130BE0892F90E0880F991F84589F4FFC01A5918D
S1130BF0B4918C9120E030E0842311F021E030E0C6
S1130C00C901089508951F920F920FB60F921124EF
S1130C102F933F934F938F939F93EF93FF938091E1
S1130C20C00082FD1DC04091C60020910405309192
S1130C3005052F5F3F4F2F7330708091060590910B
S1130C4007052817390771F0E0910405F0910505AF
S1130C50EC53FB4F4083309305052093040502C0F9
S1130C608091C600FF91EF919F918F914F913F9199
S1130C702F910F900FBE0F901F901895E09158057B
S1130C80F0915905E05CFF4F819191912081318170
S1130C90821B930B8F739070892B11F00E940206B4
S1130CA008951F920F920FB60F9211242F933F9322
S1130CB08F939F93EF93FF932091480530914905BB
S1130CC080914A0590914B052817390731F480919A
S1130CD0C1008F7D8093C10014C0E0914A05F0915A
S1130CE04B05E85FFA4F208180914A0590914B05AE
S1130CF001968F73907090934B0580934A052093CF
S1130D00C600FF91EF919F918F913F912F910F908A
S1130D100FBE0F901F901895AF92BF92DF92EF9283
S1130D20FF920F931F93CF93DF93EC017A018B0112
S1130D30DD24403081EE580780E0680780E07807C2
S1130D4011F0DD24D39491E0A92EB12CEC89FD8916
S1130D50DD2069F0C50108A002C0880F991F0A941C
S1130D60E2F7808360E079E08DE390E005C01082D3
S1130D7060E874E88EE190E0A80197010E94BF0941
S1130D80215030404040504056954795379527951F
S1130D9080E12030380720F0DD2011F0DD24D6CFAB
S1130DA0E889F9893083EA89FB89208319A2EE89CD
S1130DB0FF89408121E030E0C9010C8C02C0880F1A
S1130DC0991F0A94E2F7482B4083EE89FF894081FA
S1130DD0C9010D8C02C0880F991F0A94E2F7482BB1
S1130DE04083EE89FF894081C9010E8C02C0880FBF
S1130DF0991F0A94E2F7482B4083EE89FF8980818A
S1130E000F8C02C0220F331F0A94E2F72095282387
S1130E102083DF91CF911F910F91FF90EF90DF908E
S1130E20BF90AF900895DC011C96ED91FC911D9745
S1130E30E05CFF4F2191319180819181281B390B16
S1130E402F733070C9010895DC011C96ED91FC915B
S1130E501D97E05CFF4F20813181E054F040DF01B9
S1130E60AE5BBF4F8D919C9111972817390719F4E8
S1130E702FEF3FEF07C08D919C91E80FF91F808100
S1130E80282F30E0C9010895DC011C96ED91FC91F6
S1130E901D97E05CFF4F20813181E054F040DF0179
S1130EA0AE5BBF4F8D919C9111972817390719F4A8
S1130EB02FEF3FEF10C08D919C911197E80FF91F10
S1130EC020818D919C91119701968F73907011964A
S1130ED09C938E9330E0C9010895DC0191968C9126
S1130EE09197882339F05496ED91FC915597808120
S1130EF086FFF9CF91961C920895CF93DF93EC016E
S1130F00EE85FF85E05CFF4F20813181E054F040A5
S1130F102F5F3F4F2F733070DF01AE5BBF4F8D915A
S1130F209C91119728173907D1F3E05CFF4F80811A
S1130F309181E054F040E80FF91F6083EE85FF854E
S1130F40E05CFF4F31832083EE89FF89208181E0BB
S1130F5090E00F8C02C0880F991F0A94E2F7282BA7
S1130F60208381E089A3EC89FD898081806480836A
S1130F7081E090E0DF91CF91089510924F05109297
S1130F804E0588EE93E0A0E0B0E080935005909386
S1130F905105A0935205B09353058CE093E09093D0
S1130FA04D0580934C0584EC94E09093590580930F
S1130FB0580588E095E090935B0580935A0585EC8D
S1130FC090E090935D0580935C0584EC90E09093B1
S1130FD05F0580935E0580EC90E0909361058093BB
S1130FE0600581EC90E0909363058093620582EC48
S1130FF090E0909365058093640586EC90E090936F
S113100067058093660584E08093680583E0809398
S1131010690587E080936A0585E080936B0581E02C
S113102080936C050895CF93DF930E94E1040E949E
S11310307103CEE3D6E00E94A7032097E1F30E9458
S11310403E06F9CFCF92DF92EF92FF920F931F9358
S1131050CF93DF937C016B018A01C0E0D0E00FC025
S1131060D6016D916D01D701ED91FC910190F08154
S1131070E02DC7010995C80FD91F01501040011573
S1131080110571F7CE01DF91CF911F910F91FF9060
S1131090EF90DF90CF900895EF92FF920F931F93FC
S11310A08C01DC01ED91FC910190F081E02D6DE06B
S11310B009957C01D801ED91FC910190F081E02D1E
S11310C0C8016AE009959C012E0D3F1DC9011F91BD
S11310D00F91FF90EF900895CF93DF93EC0161158A
S11310E0710519F420E030E00FC0DB010D90002001
S11310F0E9F71197A61BB70BE881F9810280F38108
S1131100E02DAD0109959C01C901DF91CF910895AE
S11311104F925F927F928F929F92AF92BF92CF92A3
S1131120DF92EF92FF920F931F93DF93CF93CDB78C
S1131130DEB7A1970FB6F894DEBF0FBECDBF2C016A
S1131140742ECB01223008F42AE019A231E2C32E16
S1131150D12CCC0EDD1E822E9924AA24BB24672D0B
S1131160752FA50194010E94BF0979018A01C80164
S1131170B701A50194010E948D09472D461B0894CF
S1131180C108D1084A3014F4405D01C0495CF6013D
S11311904083E114F1040105110521F07E2C5F2D3B
S11311A0C801DDCFC201B6010E946C08A1960FB63A
S11311B0F894DEBF0FBECDBFCF91DF911F910F9189
S11311C0FF90EF90DF90CF90BF90AF909F908F9063
S11311D07F905F904F900895DC012115310541F413
S11311E0ED91FC910190F081E02D642F0995089513
S11311F00E9488080895CF92DF92EF92FF920F9396
S11312001F936C017B019A0100E010E0B801A70173
S11312100E94EC088C01C6010E944C08080F191F9B
S1131220C8011F910F91FF90EF90DF90CF90089528
S1131230CF92DF92EF92FF920F931F93CF93DF939E
S1131240EC016A017B012115310541F4E881F98142
S11312500190F081E02D642F09951FC02A303105DB
S1131260D1F477FF17C0E881F9810190F081E02D76
S11312706DE209958C0144275527BA014C195D0983
S11312806E097F09CE012AE00E9488089801280F80
S1131290391F04C02AE00E9488089C01C901DF911B
S11312A0CF911F910F91FF90EF90DF90CF90089511
S11312B0CF92DF92EF92FF920F931F936C017B0109
S11312C09A010027F7FC0095102FB801A7010E948E
S11312D018098C01C6010E944C08080F191FC80187
S11312E01F910F91FF90EF90DF90CF9008950E948F
S11312F06C080895EF92FF920F931F937C010E9454
S11313006C088C01C7010E944C08080F191FC80102
S11313101F910F91FF90EF900895629FD001739FEA
S1131320F001829FE00DF11D649FE00DF11D929F7D
S1131330F00D839FF00D749FF00D659FF00D9927BC
S1131340729FB00DE11DF91F639FB00DE11DF91FE0
S1131350BD01CF011124089597FB092E07260AD059
S113136077FD04D02ED006D000201AF47095619534
S11313707F4F0895F6F7909581959F4F0895A1E2C8
S11313801A2EAA1BBB1BFD010DC0AA1FBB1FEE1FFB
S1131390FF1FA217B307E407F50720F0A21BB30B46
S11313A0E40BF50B661F771F881F991F1A9469F7C2
S11313B060957095809590959B01AC01BD01CF011E
S11313C00895AA1BBB1B51E107C0AA1FBB1FA61788
S11313D0B70710F0A61BB70B881F991F5A95A9F7DA
S11313E080959095BC01CD010895EE0FFF1F0590E7
S10D13F0F491E02D0994F894FFCF66
S11313FA54686520636F646520697320646966664E
S113140A6572656E74210054686520636F64652093
S113141A6973207468652073616D652100436F6484
S113142A6520706C61796564207375636365737391
S113143A66756C6C7921004E6F20636F6465207049
S113144A6C6179656421002D2D2D2D2D2D2D2D2DC9
S113145A2D2D2D2D2D2D2D2D2D205265706F72744D
S113146A202D2D2D2D2D2D2D2D2D2D2D2D2D2D2DAB
S113147A2D2D2D0047656E6572616C20696E666F4D
S113148A726D6174696F6E3A006B485A3A004B6820
S113149A7A3A2000436F64657320696E666F726DD1
S11314AA6174696F6E3A00436F6465732063617097
S11314BA74757265643A20002D2D2D2D2D2D2D2D38
S11314CA2D2D2D2D2D2D2D2D2D2D00466F722049BC
S11314DA443A2000547275652074696D653A200097
S11314EA46616C73652074696D653A20004E6F20FD
S11314FA636F6465207465616368656420796574E3
S113150A2120506C65617365207465636820616786
S113151A61696E210054696D65206F75742E2054BB
S113152A727920616761696E21004D6178696D7510
S113153A6D20616D6F756E74207265616368656490
S113154A212054686520636F646520697320626989
S113155A67676572207468616E20746865206D61BE
S113156A78696D756D20616C6C6F776564212054A0
S113157A727920616761696E210053746172742003
S113158A7465616368696E672E20506C6561736562
S113159A20707265737320746865204952206275DD
S11315AA74746F6E210054656163686564205375B1
S11315BA636365737366756C6C7921004469646E40
S11315CA2774205465616368205375636365737374
S11315DA66756C6C7921000D00020008000700068C
S11315EA0005000400030009006E616E00696E665E
S11315FA006F7666002E0000000000007D072208B6
S10B160A1307440724076D07D0
S9030000FC
