S00D000054657374652E7372656312
S11300000C946D000C9495000C9495000C94950040
S11300100C9495000C9495000C9495000C94950008
S11300200C9495000C9495000C9495000C949500F8
S11300300C9495000C9495000C9495000C949500E8
S11300400C946B180C9495000C949A190C94E81960
S11300500C9495000C9495000C9495000C949500C8
S11300600C9495000C9495007C3C3E5E2B3D3F2FF8
S11300705B5D3B2C2A225C0000000000240027006A
S11300802A0000000000250028002B0000000000CA
S113009023002600290004040404040404040202C6
S11300A002020202030303030303010204081020F3
S11300B040800102040810200102040810200000FE
S11300C00007000201000003040600000000000015
S11300D000008B043406541B900411241FBECFEF80
S11300E0D8E0DEBFCDBF13E0A0E0B1E0E8EBFBE376
S11300F002C005900D92AC3DB107D9F717E0ACED05
S1130100B3E001C01D92AC31B107E1F710E0C8EDD6
S1130110D0E004C02297FE010E94A41DC23DD10775
S1130120C9F70E94AA1B0C94CF1D0C9400006F9277
S11301307F928F929F92AF92BF92CF92DF92EF9273
S1130140FF920F931F93CF93DF933C014A015B010E
S1130150E90112C06A017B010894C11CD11CE11C95
S1130160F11CD3011A96ED91FC911B97CB01BA01B6
S113017009958993B701A601CA01881999098017BD
S1130180910740F3DF91CF911F910F91FF90EF9072
S1130190DF90CF90BF90AF909F908F907F906F90A3
S11301A00895FC0171876087538742870895EF9211
S11301B0FF920F931F93CF93DF93EC0179014115C5
S11301C051056105710531F18C859D85AE85BF852D
S11301D084179507A607B707E8F008891989CB01A2
S11301E0BA016150704080409040980140E050E076
S11301F00E941F1DAB01BC018C819D81AE81BF811A
S1130200480F591F6A1F7B1FCE0197010E94970058
S113021080E001C081E0DF91CF911F910F91FF90A9
S1130220EF900895FC01648575858685978508950A
S1130230CF93DF930F92CDB7DEB76983DC01ED91E5
S1130240FC910280F381E02DBE016F5F7F4F41E09E
S113025050E009950F90DF91CF910895FC01818DB5
S1130260928D009711F00E94A50C0895CF93DF930F
S1130270EC01898D9A8D009761F0FC011382128242
S11302800E94290FE98DFA8D2281338121153105D0
S113029031F081E090E09B838A8380E090E0DF91FD
S11302A0CF910895CF93DF930F92CDB7DEB7BE0100
S11302B06F5F7F4F41E050E00E94770A81309105E3
S11302C019F4898190E002C08FEF9FEF0F90DF91C6
S11302D0CF910895FC01818D928D009719F00E94B1
S11302E0520108958FEF9FEF08950F931F93CF93BB
S11302F0DF93EC01898D9A8D0097A9F00E94520139
S11303008C018FEF0F3F180781F0898D9A8DFC01C6
S113031042855385648575854150504060407040E6
S11303200E940B0C02C000E010E0C801DF91CF91E5
S11303301F910F910895EF92FF920F931F93CF9304
S1130340DF9300D0CDB7DEB77C018A01DC011396C0
S11303501C921E92129788EE93E0A0E0B0E0F701A1
S113036084839583A683B78384E091E0918380831B
S11303708DE190E069837A830E943617FC01D701EE
S11303805A969C938E93599769817A81009779F054
S1130390DB018DE10D9001928150E1F7C7010C96CC
S11303A0B8014CE050E00E94C01DF701108E0F9080
S11303B00F90DF91CF911F910F91FF90EF900895CF
S11303C0FC011382128248EE53E060E070E0448343
S11303D055836683778384E091E091838083128ED2
S11303E0118E1486089524E031E0FC0131832083CA
S11303F00895FC01818D928D009719F00E940B0CD9
S1130400089580E008950F931F93DC015996ED91B0
S1130410FC915A97309729F00285138524853585F8
S113042003C00FEF1FEF9801B801C9011F910F918D
S113043008950F931F93DC015996ED91FC915A97FF
S1130440309729F0038914892589368903C000E08F
S113045010E09801B801C9011F910F910895CF923E
S1130460DF92EF92FF92CF93DF93EC01898D9A8D07
S11304700097F9F0CE010E9419026B017C01CE01B4
S11304800E940302DC01CB01C81AD90AEA0AFB0A5A
S113049080E0C81680E8D80680E0E80680E0F80628
S11304A030F08FEFC82E8FE7D82EE12CF12CC60147
S11304B002C080E090E0DF91CF91FF90EF90DF9059
S11304C0CF9008956F927F928F929F92AF92BF9236
S11304D0CF92DF92EF92FF920F931F93CF93DF930C
S11304E00F92CDB7DEB7F82E4A016901F9011182E6
S11304F0108281E0A82EB12C062E02C0AA0CBB1CCF
S11305000A94E2F716C0F601808191818815990555
S113051020F01182108280E021C0C80169830E940A
S1130520C118F60180819181800F911F918380838E
S1130530698189B190E0FF2029F08A219B210097ED
S113054049F40BC0062E02C0959587950A94E2F7EC
S113055080FD03C0EE2069F3D6CF81E00F90DF91D8
S1130560CF911F910F91FF90EF90DF90CF90BF90AC
S1130570AF909F908F907F906F9008953F924F928D
S11305805F926F927F928F929F92AF92BF92CF921F
S1130590DF92EF92FF920F931F93CF93DF93382E46
S11305A0D62ECA01B901E801188219821A821B8267
S11305B001E010E00D2C02C0000F111F0A94E2F7B5
S11305C028EE33E040E050E00E941F1D4B015C0127
S11305D02701662457FC6094762C1EC0888199817B
S11305E0AA81BB8188159905AA05BB0530F018823C
S11305F019821A821B8280E024C0C7010E94C1189C
S113060088819981AA81BB81840D951DA61DB71D82
S113061088839983AA83BB8389B190E0332029F02E
S113062080239123009749F40BC00D2C02C09595AB
S113063087950A94E2F780FD03C0CC2069F3CECFFE
S113064081E0DF91CF911F910F91FF90EF90DF90A8
S1130650CF90BF90AF909F908F907F906F905F905E
S11306604F903F90089524E231E0FC0131832083D0
S113067008950E94111708950E941216089524E205
S113068031E0FC01318320830E94BA1B0895CF938B
S1130690DF93AB01BC01C6EFD3E0CE010E94F901A8
S11306A0CE010E946A01DF91CF910895FF920F93CA
S11306B01F93CF93DF938B019C01F42EC6EFD3E0FD
S11306C0CE01B901A8010E94F901CE016F2D0E944B
S11306D01801CE010E942E01DF91CF911F910F913D
S11306E0FF9008958130910569F486EF93E00E94AC
S11306F0E0018CED93E066E573E047E453E00E948B
S1130700D1000895009721F486EF93E00E94F3014D
S113071008958F929F92AF92BF92CF92DF92EF9201
S1130720FF92CF93DF93CDB7DEB76B970FB6F894F4
S1130730DEBF0FBECDBF86EF96E040E855E260E035
S113074070E00E94231A86EF96E06CE271E00E944A
S1130750091D8AE061E00E94061981E194E06AE0E3
S11307600E949504882339F486EF96E064E471E0EE
S11307700E940C1DBEC086EF96E06BE571E00E94FE
S11307800C1D86EF96E060E771E00E940C1DCE011F
S1130790019661E174E047E851E021E00E94A80578
S11307A08B819C819093F9038093F8038D819E81C2
S11307B0AF81B8858093FA039093FB03A093FC0365
S11307C0B093FD0389859A85AB85BC858093FE0330
S11307D09093FF03A0930004B0930104A2E0B4E05B
S11307E0FE013D968DE001900D928150E1F78A8DD6
S11307F09B8D9093100480930F04CE0101960E9468
S1130800F3018CED93E00E941201AB01BC0186EF71
S113081096E02AE030E00E94961C86EF96E062E9BA
S113082071E00E94091D8CED93E00E941201AB015E
S1130830BC0186EF96E02AE030E00E94961C86EF29
S113084096E061EA71E00E940C1D86EF96E062E991
S113085071E00E94091D8CED93E00E941201AB012E
S1130860BC0186EF96E02AE030E00E94961C81E00D
S1130870C82ED12CE12CF12C2AC08CED93E0B701C9
S1130880A60122EF33E00E94D70086EF96E065EBE5
S113089071E00E94091D6091F2037091F30386EFE9
S11308A096E04AE050E00E94EA1C86EF96E06AEB8C
S11308B071E00E94091D6091F4037091F50386EFC5
S11308C096E04AE050E00E94EA1C750164018CED58
S11308D093E00E941201DC01CB0146015701089408
S11308E0811C911CA11CB11CC816D906EA06FB0682
S11308F020F26B960FB6F894DEBF0FBECDBFDF912A
S1130900CF91FF90EF90DF90CF90BF90AF909F90EA
S11309108F900895089581E090E00E9472030895F5
S113092080E090E00E94720308950F931F93CF9389
S1130930DF938C01462F61E00E941D078823C1F0DC
S1130940E8012C96CE01B80141E00E94901488235E
S113095039F4CE01B80140E00E949014882341F09C
S1130960C8018A96BE010E94260A91E0882309F4F0
S113097090E0892FDF91CF911F910F910895FC0191
S1130980DB0112968D919C9113979383828387EC5C
S113099091E09183808314968C91149784831596A7
S11309A08C911597858316964D915D916D917C91EF
S11309B0199746835783608771871A964D915D9185
S11309C06D917C911D9742875387648775871E9626
S11309D04D915D916D917C91519746875787608BBE
S11309E0718B52968C915297828B53964D915D9157
S11309F06D917C915697438B548B658B768B579670
S1130A004D915D916D917C915A97478B508F618F79
S1130A10728F5B968D919C915C97948F838F0895D0
S1130A204F925F926F927F928F929F92AF92BF92FA
S1130A30CF92DF92EF92FF920F931F93CF93DF93A6
S1130A40CDB7DEB7C754D0400FB6F894DEBF0FBEA3
S1130A50CDBF4C013A0129018E01055D1F4F665D32
S1130A607F4FC8010E94BF04198A188A87EC91E05D
S1130A709F878E871B8A7301AEE0AA2EB12CAC0E21
S1130A80BD1E68013BC0F70120812F3221F4089478
S1130A90E11CF11C33C08E198D3008F08CE0082F56
S1130AA010E0CE010196B701A8010E94C01DE1E04B
S1130AB0F0E0EC0FFD1FE00FF11F1082C5010E9452
S1130AC0EA0CC501B601AE014F5F5F4F21E00E9401
S1130AD0330E882349F4F4011382128287EC91E0E7
S1130AE09183808315821BC0E00EF11EC6010E9413
S1130AF0EA0C9C2D8D2D6501A92EB82EC7016FE23D
S1130B0070E00E94B51D009709F0BDCFE618F70804
S1130B10F201F182E082C401B6010E94BF04C40163
S1130B20C95BDF4F0FB6F894DEBF0FBECDBFDF91B8
S1130B30CF911F910F91FF90EF90DF90CF90BF90D6
S1130B40AF909F908F907F906F905F904F9008959B
S1130B50AF92BF92DF92EF92FF920F931F93CF93C6
S1130B60DF93CDB7DEB7C657D0400FB6F894DEBFDB
S1130B700FBECDBF7C015A01D22ECE01865A9F4FA3
S1130B809E012F5F3F4F0E94100509811A810A0DB3
S1130B901B1DF8018081882371F4CE01CD96BE011E
S1130BA0665A7F4F0E94BF04C701BE01635C7F4F3A
S1130BB041EC51E045C01BA21AA287EC91E099A335
S1130BC088A31DA2A0968FADA0978823C9F0825058
S1130BD0823058F4CE0180966BE374E0A8012D2D89
S1130BE00E94330E8823A9F40BC0CE018096BE0167
S1130BF0665A7F4FA8012D2D0E94330E882321F4BD
S1130C00C7010E94E0011EC0CE01865A9F4F0E9478
S1130C10EA0C8D2D867041F04BA95CA96DA97EA9C3
S1130C20CE0180960E940B0CCE010396BE01605E3D
S1130C307F4F0E94BF04C701BE016D5F7F4FA801B3
S1130C400E949B01C701CA58DF4F0FB6F894DEBF5C
S1130C500FBECDBFDF91CF911F910F91FF90EF9009
S1130C60DF90BF90AF90089510921604109217046D
S1130C7010921A0410921C0482E090E0A0E0B0E00C
S1130C8080931D0490931E04A0931F04B09320042A
S1130C901092340410923E0410923D0487EC91E0CB
S1130CA090933C0480933B041092400408958EBDBD
S1130CB00DB407FEFDCF08958FEF0E9457068EB541
S1130CC00895FC01848161E00E9445190895FC01A6
S1130CD0848160E00E9445190895CF93DF93EC016D
S1130CE08E818823D1F08FEF8EBD4FEF04C00DB4F9
S1130CF007FEFDCF4EBD8F8198859C012F5F3F4F2E
S1130D0038872F8322E08130920788F30DB407FEE1
S1130D10FDCFCE010E9461061E82DF91CF9108951E
S1130D20673028F026E1FC01258380E00895962FA2
S1130D308DB560FD02C0663011F48E7F01C0816004
S1130D408DBD8CB58C7F8CBD3CB592FF02C022E07A
S1130D5001C020E081E091FF80E0832B822B8CBDD9
S1130D6081E008950F931F93CF93DF93EB010E94CB
S1130D70B3188B019C010E945C068F3F49F00E94CE
S1130D80B318601B710B6C177D07A8F380E001C0DA
S1130D9081E0DF91CF911F910F9108958F929F92DF
S1130DA0AF92BF92FF920F931F93CF93DF938C0167
S1130DB0F62E49015A010E946D06C8010E94670679
S1130DC0C8016CE271E00E94B2068F2D80640E941B
S1130DD05706C8E1D0E0D501C4010C2E04C0B69575
S1130DE0A795979587950A94D2F70E945706289756
S1130DF08FEFC83FD80779F7FF2029F0E8E0FE1607
S1130E0021F08FEF03C085E901C087E80E945706EF
S1130E10C0E00E945C06F801828787FF04C0CF3FD0
S1130E2011F0CF5FF6CFDF91CF911F910F91FF901B
S1130E30BF90AF909F908F900895AF92BF92CF9242
S1130E40DF92EF92FF920F931F93CF93DF93EC0106
S1130E50062F1B8619861E821D824C830E94B3189E
S1130E60DC01CB015C018C8161E00E940619CE019A
S1130E700E9461068CE060E00E9406198BE061E04C
S1130E800E9406198DE061E00E9406198AE061E083
S1130E900E9406198AE061E00E94451983E58CBD31
S1130EA08DB58E7F8DBD1AE08FEF0E9457061150CD
S1130EB0D9F7CE010E9467060AC00E94B3186A19C6
S1130EC07B0987E0613D780710F081E057C0CE01CF
S1130ED060E020E030E0A9010E94CE06182F8A8746
S1130EE0813059F7CE0168E02AEA31E040E050E071
S1130EF00E94CE0682FF02C01B870CC014E00E9431
S1130F005C068A871150D9F78A3A11F082E036C01C
S1130F1082E08B878B85823031F4C12CD12CE12C7B
S1130F2080E4F82E0EC0CC24DD2476010AC00E9491
S1130F30B3186A197B0987E0613D780710F088E0EF
S1130F401DC0CE0167E320E030E0A9010E94CE0677
S1130F50CE0169E2A70196010E94CE068A87882302
S1130F6031F78B858230E9F4CE016AE320E030E08A
S1130F70A9010E94CE06882339F086E08D83CE0134
S1130F800E94610680E014C00E945C06807C803C64
S1130F9011F483E08B870E945C060E945C060E9429
S1130FA05C06CE010E946106CE01602F0E9490066D
S1130FB0DF91CF911F910F91FF90EF90DF90CF9031
S1130FC0BF90AF9008950F931F93CF93DF93EC01DD
S1130FD00E94B3188B019C010AC00E94B318601BC5
S1130FE0710B81E06D32780710F08FE008C00E9429
S1130FF05C068A878F3F89F38E3F39F08DE08D83BD
S1131000CE010E94610680E001C081E0DF91CF91B2
S11310101F910F9108958F929F92AF92BF92CF929A
S1131020DF92EF92FF920F931F93CF93DF93EC0124
S11310304A015B0169010115110509F47EC0C8016B
S1131040820F931F22E08130920708F071C08E81D5
S1131050882371F088819981AA81BB814817590737
S11310606A077B0729F48F819885C816D90618F575
S113107088829982AA82BB828B85833039F079E099
S1131080880C991CAA1CBB1C7A95D1F7CE0161E18E
S1131090A50194010E94CE06882319F083E08D8374
S11310A047C0CE010E94E307882309F441C0188693
S11310B01F8281E08E838FEF8EBD2FEF09C00DB4A8
S11310C007FEFDCF2EBD8F819885019698878F836B
S11310D08F8198858C159D0590F39801215030409F
S11310E0F70180E090E04FEF07C00DB407FEFDCF9D
S11310F05EB551934EBD019682179307B0F30DB4BC
S113110007FEFDCF8EB52E0D3F1DF90180838F8123
S11311109885800F911F98878F832985222321F03A
S1131120F2E080309F0748F0CE010E946D0605C0B2
S1131130CE010E94610680E001C081E0DF91CF9181
S11311401F910F91FF90EF90DF90CF90BF90AF90E1
S11311509F908F900895EF92FF920F931F937901C0
S113116020E030E000E012E00E940B081F910F9194
S1131170FF90EF900895CF93DF93EC016EBDFA01D9
S113118080E090E00DB407FEFDCF20812EBD0DB4AC
S113119007FEFDCF21812EBD0296329622E08030DB
S11311A0920781F70DB407FEFDCF8FEF0E9457061B
S11311B08FEF0E9457060E945C068A878F718530E4
S11311C039F081E18D83CE010E94610680E001C087
S11311D081E0DF91CF910895CF92DF92EF92FF9259
S11311E00F931F93CF93DF93EC016A017B01890175
S11311F0411551056105710511F482E132C08B85F9
S1131200833039F0E9E0CC0CDD1CEE1CFF1CEA95C0
S1131210D1F7CE0168E1A70196010E94CE0688238A
S113122011F084E01EC0CE016EEFA8010E94BB083D
S11312308823C1F0CE0168E572E00E94B2068823DB
S113124011F485E10EC0CE016DE020E030E0A9018B
S11312500E94CE06882321F40E945C06882379F03C
S113126084E18D83CE010E94610680E0DF91CF91FD
S11312701F910F91FF90EF90DF90CF900895CE01D2
S11312800E94610681E0F2CFCF93DF93EC019C01D1
S11312902A5F3F4F8B8D9C8D41E050E060E070E011
S11312A00E9425138823A1F08F89988DA98DBA8D6A
S11312B00097A105B10571F48E819F81A885B98538
S11312C08F8B988FA98FBA8F8C8180688C8302C092
S11312D080E001C081E0DF91CF910895CF92DF9249
S11312E0EF92FF921F93CF93DF93EC010E94440986
S11312F0882309F44EC0EB8DFC8DCE80DF80E8841A
S1131300F9848EEF9FEFAFEFBFEFC80ED91EEA1E30
S1131310FB1E058404C0CC0CDD1CEE1CFF1C0A94CF
S1131320D2F786859785A089B189C80ED91EEA1E91
S1131330FB1E14810894C108D108E108F1080BC010
S1131340C701B601610F711D811D911D0E946111BC
S11313508823F9F01150112399F7EB8DFC8D80E06F
S113136092E0A0E0B0E0058404C0880F991FAA1F92
S1131370BB1F0A94D2F74B895C896D897E89480F1B
S1131380591F6A1F7B1F4B8B5C8B6D8B7E8B81E09F
S113139001C080E0DF91CF911F91FF90EF90DF902B
S11313A0CF900895CF93DF93EC01462F8E859F85D0
S11313B0A889B989BC01CD010E942611882351F066
S11313C08A8990E025E0880F991F2A95E1F78B59C7
S11313D09B4F02C080E090E0DF91CF910895DC0143
S11313E0FB018BE090E291938150E9F730E047E014
S11313F021C02E3241F44A3029F138E04AE01AC0C3
S1131400E21719F41FC088E690E0FC010196E4910C
S1131410EE23B1F74317B0F02132A0F02F37A0F438
S1131420FB01E30FF11D822F81568A3108F420520B
S113143020833F5F2D912223E1F681E0FB0190811F
S1131440903219F480E0089580E008950F931F937B
S1131450CF93DF93EC018B018D81882309F041C088
S1131460FB0187898031B1F482E08D831F8A188E55
S1131470198E1A8E808D918DA0E0B0E035E0880F32
S1131480991FAA1FBB1F3A95D1F78B8B9C8BAD8BF1
S1131490BE8B15C0803229F583E08D83FB01428D1C
S11314A0538D648D758D4F8B588F698F7A8F9E0104
S11314B02D5E3F4FC8010E941012882391F01C8FAB
S11314C00B8F81E08C831E821F82188619861A86F0
S11314D01B861C861D861E861F86188A198A1A8AF0
S11314E001C080E0DF91CF911F910F9108952F9259
S11314F03F924F925F926F927F928F929F92AF92A0
S1131500BF92CF92DF92EF92FF920F931F93CF93EC
S1131510DF9300D000D000D0CDB7DEB79C838B839F
S1131520862E272E2A01DC0115968C911597882387
S113153009F4E5C014968C91149780FFE0C0FAC0BA
S11315402A01481A590A3201A82CB22CEB81FC81D9
S11315503696FA83E983212C02E0302ECAC0EB814F
S1131560FC8182859385A485B5857FEF872E71E004
S1131570972E8822992225816C017D0119E0F69429
S1131580E794D794C7941A95D1F7438D548D5E830D
S11315904D83223061F4DA015A964D915D916D913B
S11315A07C915D974C0D5D1D6E1D7F1D4EC0ED81C0
S11315B0FE81048101500C218114910411F5002352
S11315C001F50097A105B10559F4EB81FC818789E8
S11315D0908DA18DB28D86839783A087B18711C02A
S11315E0AB81BC8116964D915D916D917C9119975B
S11315F08D819E8129813A810E948A11882309F470
S11316007EC0AB81BC815B96ED91FC915C97169694
S11316104D915D916D917C9119974250504060407D
S11316207040058404C0440F551F661F771F0A9439
S1131630D2F786859785A089B189480F591F6A1FFB
S11316407B1F400F511D611D711DC101881999092E
S113165063018615970508F46C01EB81FC81848194
S113166086FD06C0F0E0CF16F2E0DF0609F080C088
S11316708091CB019091CC01A091CD01B091CE018C
S1131680481759076A077B0709F472C080916304FD
S1131690909164049401860175010E940B088823CB
S11316A071F1AC0CBD1C12C094012B593B4FC90104
S11316B08C0D9D1DF901D50102C041914D93E81790
S11316C0F907D9F7E21BF30BAE0EBF1EA60160E0CB
S11316D070E0EB81FC8182859385A485B585840FB8
S11316E0951FA61FB71F82879387A487B5876C1899
S11316F07D086114710409F032CFC20102C08FEF7A
S11317009FEF26960FB6F894DEBF0FBECDBFDF91D4
S1131710CF911F910F91FF90EF90DF90CF90BF90EA
S1131720AF909F908F907F906F905F904F903F907D
S11317302F900895AB81BC8153964D915D916D912D
S11317407C9156971A968D919D910D90BC91A02DE8
S1131750820120E030E06A017B01C81AD90AEA0A52
S1131760FB0AC016D106E206F30608F4E9CEEBCE76
S1131770CB01BA0140E00E942611882309F094CFDE
S1131780BECFCF92DF92EF92FF920F931F93CF932E
S1131790DF930F92CDB7DEB78C01FC0185818230D7
S11317A078F0C284D384E484F584C801BE016F5FF9
S11317B07F4F41E050E00E94770A8130910561F04B
S11317C080E090E00F90DF91CF911F910F91FF90F7
S11317D0EF90DF90CF900895F80182859385A485DA
S11317E0B5854F96A11DB11D82879387A487B587C0
S11317F0D701C60125E0B695A795979587952A95B3
S1131800D1F78F7090E035E0880F991F3A95E1F792
S11318108B599B4FD7CF8F929F92AF92BF92CF920B
S1131820DF92EF92FF920F931F93CF93DF93EC011C
S11318304A015B012D81222309F475C08B899C899F
S1131840AD89BE8984179507A607B70708F46BC04E
S113185078C081149104A104B10449F41E821F824A
S1131860188619861A861B861C861D865AC04A85C8
S11318705B856C857D85EB8DFC8D258530E0275F50
S11318803F4FDB01CA010197A109B109022E04C02F
S1131890B695A795979587950A94D2F77501640133
S11318A00894C108D108E108F10804C0F694E7944B
S11318B0D794C7942A95D2F7C816D906EA06FB0628
S11318C028F0411551056105710549F48F89988DFA
S11318D0A98DBA8D8E839F83A887B98716C0C81A2D
S11318E0D90AEA0AFB0A11C04E815F8168857985AD
S11318F08B8D9C8D98010E948A110894C108D1088F
S1131900E108F108882321F40EC08E010A5F1F4FFD
S1131910C114D104E104F10439F78A869B86AC86AC
S1131920BD8681E001C080E0DF91CF911F910F91CE
S1131930FF90EF90DF90CF90BF90AF909F908F90EB
S11319400895223009F085CFE8CF0F931F93CF93EA
S1131950DF938C01FC0185818823B1F1848187FFA9
S113196030C0C80161E00E94D209EC01009761F126
S1131970F8018581823040F483899489A589B689E8
S11319808C8F9D8FAE8FBF8FF8018789908DA18D2D
S1131990B28D9B8F8A8FBD8BAC8BE0915C04F091F0
S11319A05D04309751F0BE016A5E7F4FCE014896C8
S11319B00995888D998D9B8B8A8BF80184818F770B
S11319C084830E94E81001C080E0DF91CF911F91D1
S11319D00F910895CF93DF93EC010E94A50C882307
S11319E019F01D8281E001C080E0DF91CF9108955C
S11319F04F925F926F927F928F929F92AF92BF921B
S1131A00EF92FF920F931F93CF93DF9300D000D0F8
S1131A10CDB7DEB77C014A015B01DC0115968C91E0
S1131A201597813009F091C014968C91149781FF19
S1131A308CC09FC00097A105B10509F484C0F701CB
S1131A404284538464847584C701B501A4010E944F
S1131A500B0C882309F479C0D7015B968D919C9176
S1131A605C9781149104A104B10489F457964D91B3
S1131A705D916D917C915A970E943A14882309F4E0
S1131A8064C0F701178A108E118E128E3DC0D701E3
S1131A9016964D915D916D917C9119979E012F5FE2
S1131AA03F4F0E948A11882309F44FC0D7015B96E7
S1131AB0ED91FC915C9749815A816B817C81878986
S1131AC0803129F488EF9FEFA0E0B0E004C088EFF4
S1131AD09FEFAFEFBFE0481759076A077B07A0F4F1
S1131AE0CF010E943A14882381F1F701468157817E
S1131AF060857185838D948D0FEF1FEF2FEF3FE08D
S1131B000E947B12882309F1D70153968D929D92EE
S1131B10AD92BC92569714968C9114978068149643
S1131B208C93C7010E94A50C882379F0B501A40108
S1131B30481459046A047B0410F4B301A201C701D8
S1131B400E940B0C03C081E001C080E00F900F9055
S1131B500F900F90DF91CF911F910F91FF90EF9015
S1131B60BF90AF909F908F907F906F905F904F90B9
S1131B700895F70183899489A589B68984179507FF
S1131B80A607B70708F056CFE0CF1F93CF93DF9394
S1131B90EC01142FE62FF0E035E0EE0FFF1F3A952D
S1131BA0E1F7EB59FB4F8385817121F0842F827417
S1131BB009F052C06A8B8091CB019091CC01A09125
S1131BC0CD01B091CE018E879F87A88BB98B4489B4
S1131BD0558960E070E0BA0155274427828D938DC2
S1131BE0A0E0B0E0482B592B6A2B7B2B4F8B588FEE
S1131BF0698F7A8F838590E088719070009751F493
S1131C00848D958DA68DB78D8B8B9C8BAD8BBE8B68
S1131C1081E00DC080319105F9F49E012D5E3F4FA6
S1131C208B8D9C8D0E9410128823B1F084E08D83EB
S1131C30812F8F708C831E821F82188619861A86C4
S1131C401B861C861D8616FF09C0CE0140E050E0AD
S1131C50BA010E94F80C03C080E001C081E0DF916A
S1131C60CF911F9108954F925F926F927F928F92BE
S1131C709F92AF92BF92CF92DF92EF92FF920F9317
S1131C801F93CF93DF93CDB7DEB72B970FB6F8949E
S1131C90DEBF0FBECDBF3C015B01CA01822EF30142
S1131CA02581222309F0BDC08E010F5F1F4FB801AB
S1131CB00E94EF09882309F4B4C0F501838D948D43
S1131CC0F301948F838FF501168217821086118693
S1131CD01286138614861586992428013DC0C501F1
S1131CE00E94C10BBC01009709F49BC097018601B7
S1131CF0E5E03695279517950795EA95D1F70F7086
S1131D00FC018081882311F0853EB9F4992081F487
S1131D10F301028B8091CB019091CC01A091CD0174
S1131D20B091CE0186879787A08BB18B9924939429
S1131D30FB018081882381F41EC0C2014BE050E086
S1131D400E94A81D009741F4882D8073803309F404
S1131D5068C0C301602F61C0F501C284D384E484E8
S1131D60F58483899489A589B689C816D906EA06B3
S1131D70FB0608F4B4CF882D8271823109F051C07A
S1131D80992041F0C30161E00E94D2098C010097BF
S1131D9079F447C0F5018581823009F442C0C50158
S1131DA00E946E098823E9F1F301128A05E614E022
S1131DB080E2F80111928A95E9F7D801FE01319683
S1131DC08BE001900D928150E1F7E0915C04F09179
S1131DD05D04309739F0B801625F7F4FC8014096C7
S1131DE0099509C081E298E2F801918B808B80E02B
S1131DF098E097878687F80180899189938B828BF5
S1131E00918F808F86859785978B868B0E94E810AB
S1131E10882339F0C301F3016289482D0E94C50D5E
S1131E2001C080E02B960FB6F894DEBF0FBECDBF85
S1131E30DF91CF911F910F91FF90EF90DF90CF90A2
S1131E40BF90AF909F908F907F906F905F904F90D6
S1131E5008952F923F924F925F926F927F928F924A
S1131E609F92BF92CF92DF92EF92FF920F931F93B4
S1131E70CF93DF9300D000D000D0CDB7DEB78C0174
S1131E80B62EC72E5E834D83DC0115968C91159773
S1131E90813009F066C114968C91149781FF61C159
S1131EA083C1F8014389548965897689828593853C
S1131EB0A485B58584179507A607B70731F0C8012F
S1131EC00E940B0C882309F44CC12D803E804B2CBE
S1131ED05C2C17C1F801238D348DF901B480BA94B8
S1131EE0AC01BD01032E39E076956795579547956A
S1131EF03A95D1F7302DB4224FEF642E41E0742E81
S1131F0068227922BB2009F04EC06114710409F0E3
S1131F104AC0D80116964D915D916D917C911997A7
S1131F20411551056105710581F457968D919D9177
S1131F300D90BC91A02D0097A105B10549F1F801C0
S1131F4086839783A087B1872EC0C9019E012F5F26
S1131F503F4F0E948A11882309F40AC149815A819A
S1131F606B817C81D8015B96ED91FC915C978789AC
S1131F70803129F488EF9FEFA0E0B0E004C088EF3F
S1131F809FEFAFEFBFE0481759076A077B0730F0B0
S1131F90C8010E944409882331F4E3C0F801468350
S1131FA057836087718780E092E086199709410121
S1131FB08215930508F44C01D8015B96ED91FC91D0
S1131FC05C971696CD90DD90ED90FC9019978EEF6E
S1131FD09FEFAFEFBFEFC80ED91EEA1EFB1E0584AC
S1131FE004C0CC0CDD1CEE1CFF1C0A94D2F78685C1
S1131FF09785A089B189C80ED91EEA1EFB1ECB0C99
S1132000D11CE11CF11C90E0891692E0990649F577
S11320108091CB019091CC01A091CD01B091CE01E2
S11320208C159D05AE05BF0559F48FEF9FEFDC01BC
S11320308093CB019093CC01A093CD01B093CE01BA
S11320408091630490916404B701A60192010E94F7
S1132050EC08882309F485C0A0E0B2E04A0E5B1EB8
S11320603EC06114710409F5F80182859385A48545
S1132070B585438954896589768984179507A607A8
S1132080B70798F00E94E810882309F46AC0C09248
S1132090CB01D092CC01E092CD01F092CE0180919F
S11320A0620481608093620408C0C701B60141E004
S11320B00E942611882309F454C093012B593B4FE5
S11320C0C901880D991DD201F90102C04D914193B6
S11320D0E817F907D9F7E21BF30B4E0E5F1E281819
S11320E03908A40160E070E0F80182859385A48535
S11320F0B585840F951FA61FB71F82879387A48772
S1132100B587F80182859385A485B58521143104AA
S113211009F0E0CE438954896589768948175907BF
S11321206A077B0740F4838B948BA58BB68B8481E1
S1132130806884830DC080915C0490915D04009755
S113214039F08D819E81009719F0848180688483A1
S1132150F801848183FF0EC0C8010E94A50C882366
S113216049F481E090E0D80113969C938E931297E2
S11321701E821D828D819E8126960FB6F894DEBF45
S11321800FBECDBFDF91CF911F910F91FF90EF90C4
S1132190DF90CF90BF909F908F907F906F905F90D3
S11321A04F903F902F90089582FD7BCE8ECECF939B
S11321B0DF930F92CDB7DEB76983BE016F5F7F4FA8
S11321C041E050E00E94290F0F90DF91CF910895D4
S11321D0809162048823B1F14091CB015091CC01EC
S11321E06091CD017091CE0180916304909164045B
S11321F025E634E00E94EC08882331F140915E0426
S113220050915F046091600470916104411551051F
S11322106105710591F0809163049091640425E651
S113222034E00E94EC08882359F010925E04109266
S11322305F0410926004109261041092620402C060
S113224080E0089581E0089580E00895CF92DF92C0
S1132250EF92FF92CF936B017C01C42F8091CB014D
S11322609091CC01A091CD01B091CE018C159D052A
S1132270AE05BF05C1F00E94E8108823D9F0809113
S1132280630490916404B701A60125E634E00E943A
S1132290AB08882379F0C092CB01D092CC01E092B4
S11322A0CD01F092CE01809162048C2B8093620464
S11322B081E001C080E0CF91FF90EF90DF90CF905C
S11322C00895CF92DF92EF92FF926B017C010E94FE
S11322D0E8108823C9F0E5E6F4E080E090E011928C
S11322E0019622E080309207D1F7C092CB01D092C0
S11322F0CC01E092CD01F092CE0180916204816024
S11323008093620481E001C080E0FF90EF90DF9051
S1132310CF900895AF92BF92CF92DF92EF92FF9247
S11323200F931F93CF93DF93EC016A017B01590153
S113233089859A85AB85BC850196A11DB11D84173D
S11323409507A607B70708F45FC04B895C896D89B8
S11323507E898F89803129F4BB27AF2D9E2D8D2D49
S113236009C0D701C60137E0B695A795979587951B
S11323703A95D1F78C019D01040F151F261F371FB5
S1132380C901B8010091CB011091CC012091CD017C
S11323903091CE01601771078207930729F040E05E
S11323A00E942611882381F18F89803191F48FEF67
S11323B090E0A0E0B0E0C822D922EA22FB22F60194
S11323C0EE0FFF1FEB59FB4F80819181A0E0B0E03D
S11323D014C00FE710E020E030E0C022D122E22256
S11323E0F322F601EE0FFF1FEE0FFF1FEB59FB4F19
S11323F080819181A281B381BF70F5018083918333
S1132400A283B38381E001C080E0DF91CF911F916B
S11324100F91FF90EF90DF90CF90BF90AF90089511
S11324206F927F928F929F92AF92BF92CF92DF92E0
S1132430EF92FF920F931F93CF93DF9300D000D0BE
S1132440CDB7DEB78C0149835A836B837C83390112
S1132450CC24DD247601812CF2E09F2EA12CB12C1A
S113246049815A816B817C81C8019E012F5F3F4F56
S11324700E948A11882359F1D501C401F801058409
S113248004C0880F991FAA1FBB1F0A94D2F7C80E55
S1132490D91EEA1EFB1E49815A816B817C81878982
S11324A0803129F488EF9FEFA0E0B0E004C088EF0A
S11324B09FEFAFEFBFE0481759076A077B0780F229
S11324C0F301C082D182E282F38281E001C080E024
S11324D00F900F900F900F90DF91CF911F910F915C
S11324E0FF90EF90DF90CF90BF90AF909F908F9030
S11324F07F906F9008954F925F926F927F928F9228
S11325009F92AF92BF92CF92DF92EF92FF920F937E
S11325101F93CF93DF93EC016A017B0128013901FA
S1132520423051056105710508F47DC089859A859D
S1132530AB85BC850196A11DB11D84179507A6071F
S1132540B70708F470C04B895C896D897E898F89CF
S1132550803129F4BB27AF2D9E2D8D2D09C0D701C5
S1132560C60127E0B695A795979587952A95D1F743
S11325704C015D01840E951EA61EB71E8091CB01F1
S11325809091CC01A091CD01B091CE01881699060D
S1132590AA06BB0641F0C501B40140E00E94261121
S11325A0882309F440C08F89803181F48FEF90E053
S11325B0A0E0B0E0C822D922EA22FB22F601EE0F05
S11325C0FF1FEB59FB4F5182408213C08FE790E00D
S11325D0A0E0B0E0C822D922EA22FB22F601EE0FE5
S11325E0FF1FEE0FFF1FEB59FB4F408251826282A7
S11325F07382809162048160809362048A8982304C
S113260080F08D819E81AF81B885880D991DAA1DAA
S1132610BB1D80935E0490935F04A0936004B09309
S1132620610481E001C080E0DF91CF911F910F919F
S1132630FF90EF90DF90CF90BF90AF909F908F90DE
S11326407F906F905F904F9008952F923F924F929A
S11326505F926F927F928F929F92AF92BF92CF922E
S1132660DF92EF92FF920F931F93CF93DF93CDB737
S1132670DEB72F970FB6F894DEBF0FBECDBF1C0197
S11326804C875D876E877F873B872A87D9014D906A
S11326905D906D907C901397411451046104710412
S11326A031F00894411C511C611C711C10C0FC01C8
S11326B04080518062807380F1E0FD832C853D85EC
S11326C04E855F85213031054105510509F01D8294
S11326D0D1011996CD90DD90ED90FC901C97089453
S11326E0C11CD11CE11CF11C530142011E821F823A
S11326F018861986F10181859285A385B4852E817A
S11327003F8148855985281739074A075B0708F030
S113271095C0C814D904EA04FB0450F442E0842EA2
S1132720912CA12CB12C52E0452E512C612C712CF2
S1132730C101B501A4019E012F5F3F4F0E948A1180
S1132740882309F47BC049815A816B817C81D5013E
S1132750C4010196A11DB11D411551056105710505
S113276019F02C013D010DC084199509A609B7097A
S11327702C853D854E855F8582179307A407B50791
S113278089F08E819F81A885B9850196A11DB11D0F
S11327908E839F83A887B9870894811C911CA11CF0
S11327A0B11CA8CFC101A401B5010FEF1FEF2FEF9A
S11327B03FE00E947B12882391F440C068017901B4
S11327C00894C108D108E108F108C101B701A601C4
S11327D00E947B12882391F19701860102C0950122
S11327E08401401651066206730640F3AA85BB8530
S11327F04D915D916D917C91139741155105610542
S1132800710539F0C101930182010E947B12882372
S1132810A9F0EA85FB854082518262827382FD8140
S1132820FF2371F00894411C511C611C711CD101DF
S11328304D925D926D927C92139702C080E001C02C
S113284081E02F960FB6F894DEBF0FBECDBFDF91A7
S1132850CF911F910F91FF90EF90DF90CF90BF9099
S1132860AF909F908F907F906F905F904F903F902C
S11328702F900895AF92BF92CF92DF92EF92FF9282
S11328800F931F93CF93DF9300D000D0CDB7DEB763
S11328905C016A017B0182E090E0A0E0B0E0F50118
S11328A080839183A283B383C501B701A6019E01EE
S11328B02F5F3F4F0E948A11882311F1C501B70190
S11328C0A60100E010E098010E947B128823C1F069
S11328D0C980DA80EB80FC80F5018789803129F496
S11328E088EF9FEFA0E0B0E004C088EF9FEFAFEF68
S11328F0BFE0C816D906EA06FB06B0F281E001C0C3
S113290080E00F900F900F900F90DF91CF911F9167
S11329100F91FF90EF90DF90CF90BF90AF9008950C
S11329206F927F928F929F92AF92BF92CF92DF92DB
S1132930EF92FF921F93CF93DF93EC01142F7093C8
S1132940640460936304442381F1453008F005C1B5
S113295060E070E0CB0140E00E942611882309F476
S1132960FCC0E12FF0E0A4E0EE0FFF1FAA95E1F711
S1132970ED5EF94F808190E08F779070009709F0B9
S1132980ECC084859585A685B78584369105A10517
S1132990B10508F4E2C080849184A284B3848114D4
S11329A09104A104B10421F4D8C0882499245401C9
S11329B0C501B40140E00E942611882309F4CDC06A
S11329C0809170049091710422E08030920709F0A4
S11329D0C4C030917504332309F4BFC080917304DB
S11329E090917404009709F4B8C0209172042223D2
S11329F009F4B3C03A8B2C831D8630E041E050E0EB
S1132A0006C0812F8F5F8D87183008F0A6C01D8502
S1132A10CA01012E02C0880F991F0A94E2F72817F1
S1132A20390779F780917B0490917C04009719F021
S1132A30A0E0B0E008C08091890490918A04A0913C
S1132A408B04B0918C048D839E83AF83B887C09030
S1132A507304D0907404EE24FF24C80CD91CEA1C1F
S1132A60FB1CCB8ADC8AED8AFE8A60907604709027
S1132A707704798E688E2091750430E040E050E050
S1132A80BC01CD010E941F1DDC01CB018C0D9D1DDD
S1132A90AE1DBF1D8A8F9B8FAC8FBD8FA301E5E058
S1132AA0440F551FEA95E1F741505E4F452F5527D6
S1132AB0469560E070E0480F591F6A1F7B1F4E87E0
S1132AC05F87688B798B8091780490917904009763
S1132AD019F0A0E0B0E008C08091850490918604CC
S1132AE0A0918704B0918804841A950AA60AB70AAB
S1132AF0880E991EAA1EBB1E04C0B694A794979470
S1132B0087941A95D2F789869A86AB86BC8685EF18
S1132B1088168FE0980680E0A80680E0B80610F4D6
S1132B208CE018C025EF82162FEF920620E0A20653
S1132B3020E0B20610F480E10DC0809191049091E0
S1132B409204A0919304B09194048A8F9B8FAC8FCC
S1132B50BD8F80E28F8B81E001C080E0DF91CF9157
S1132B601F91FF90EF90DF90CF90BF90AF909F9018
S1132B708F907F906F9008957F928F929F92AF92E3
S1132B80BF92CF92DF92EF92FF920F931F93CF9356
S1132B90DF934A015B01722EA801970160E472E49D
S1132BA08FE090E00E94731DC901069762E070E017
S1132BB00E943E1DEB01CB010396880F991F6C0107
S1132BC0EE24D7FCE094FE2CF094E094D094C094CE
S1132BD0C11CD11CE11CF11C12C0872D61E00E94B4
S1132BE04519CE010E94C118872D60E00E94451945
S1132BF0CE010E94C1188C0C9D1CAE1CBF1C181465
S1132C0019041A041B044CF3DF91CF911F910F9107
S1132C10FF90EF90DF90CF90BF90AF909F908F90F8
S1132C207F9008958F929F92AF92BF92CF92DF923E
S1132C30EF92FF920F931F93CF93DF93EC014B011D
S1132C408A81882309F52EC0E985FA85EC0DFD1DDE
S1132C504081518160E070E0EB80FC800D811E8139
S1132C60CE0194010E94BC15E985FA85EC0DFD1D89
S1132C70828193810E94C1180894A11CB11C84E034
S1132C8090E0C80ED91E04C0CC24DD24AA24BB24A1
S1132C908F819885A816B906BCF286EF96E06CEF92
S1132CA071E004C086EF96E066E172E00E940C1DBC
S1132CB0DF91CF911F910F91FF90EF90DF90CF9014
S1132CC0BF90AF909F908F9008953F924F925F92E4
S1132CD06F927F928F929F92AF92BF92CF92DF9228
S1132CE0EF92FF920F931F93CF93DF9300D000D006
S1132CF000D0CDB7DEB75C012B013E832D83FC01F0
S1132D00D384332433943D241282108617828D2D6C
S1132D104423A9F028E833E140E050E08E010F5F3E
S1132D201F4FFEE1EF2EF12CCC24C3940E94BE026F
S1132D30882391F486EF96E06DEE72E01EC028E8D9
S1132D4033E140E050E08E010F5F1F4FEEE1EE2EC5
S1132D50F12CCC240E94BE02662477248824992472
S1132D602D813E81F501821693065CF01282108655
S1132D70178286EF96E062E073E00E940C1D80E00B
S1132D8038C021853285260D371D832DB20148EECA
S1132D905DEF0EE110E0EE24E3940E9462028823CA
S1132DA031F481E0F50182839086878222C0F501A7
S1132DB021853285260D371D2E5F3F4F8D2DB201A3
S1132DC048EE5DEF0EE110E0EE24E3940E9462020F
S1132DD024E030E0620E731E94012F5F3F4F88237E
S1132DE031F481E0F50182833087278302C04901F1
S1132DF0B7CF26960FB6F894DEBF0FBECDBFDF91D6
S1132E00CF911F910F91FF90EF90DF90CF90BF90E3
S1132E10AF909F908F907F906F905F904F903F9076
S1132E2008950F931F93CF93DF93EC018B0186EFEB
S1132E3096E062E573E00E940C1D2C853D85CE0171
S1132E40B80141E00E946516882329F086EF96E0D8
S1132E506EE773E004C086EF96E064E973E00E94D5
S1132E600C1DDF91CF911F910F9108950F931F9324
S1132E70CF93DF93BC018230910510F462E070E0DF
S1132E80E0911A07F0911B0740E050E0A0E0B0E0A9
S1132E9024C08081918186179707D0F08617970701
S1132EA071F482819381109729F013969C938E93E9
S1132EB012972CC090931B0780931A0727C04115C3
S1132EC0510519F08417950718F48D01AC01EF0131
S1132ED0DF01828193819C01F9013097D1F641157C
S1132EE05105F9F0CA01861B970B8430910580F4D3
S1132EF08A819B810115110521F0F8019383828356
S1132F0004C090931B0780931A07FE01329645C0B4
S1132F10FE01E80FF91F61937193029799838883E7
S1132F203CC08091180790911907892B41F4809136
S1132F30C8039091C903909319078093180740918F
S1132F40CA035091CB034115510541F44DB75EB707
S1132F508091C6039091C703481B590B2091180711
S1132F603091190724173507B0F4CA01821B930B5B
S1132F708617970780F0AB014E5F5F4F8417950764
S1132F8050F0420F531F5093190740931807F9014B
S1132F906193719302C0E0E0F0E0CF01DF91CF9143
S1132FA01F910F910895CF93DF939C01009709F42B
S1132FB08FC0EC0122971B821A8260911A077091CC
S1132FC01B076115710581F488819981820F931F14
S1132FD020911807309119072817390739F5D0932C
S1132FE01907C093180774C0DB0140E050E0AC1728
S1132FF0BD0708F1BB83AA83FE0121913191E20F41
S1133000F31FAE17BF0779F48D919C911197280F88
S1133010391F2E5F3F4F3983288312968D919C91DF
S113302013979B838A834115510571F4D0931B0731
S1133030C0931A074DC012968D919C911397AD01C0
S1133040009711F0DC01D3CFDA011396DC93CE9311
S11330501297FA0121913191E20FF31FCE17DF0786
S113306069F488819981280F391F2E5F3F4FFA0137
S1133070318320838A819B8193838283E0E0F0E023
S1133080DB0112968D919C911397009719F0BC0166
S1133090FD01F6CFAB014E5F5F4FDB018D919C913B
S11330A0840F951F209118073091190728173907A5
S11330B079F4309729F410921B0710921A0702C072
S11330C013821282425050405093190740931807BC
S11330D0DF91CF9108951F920F920FB60F92112492
S11330E02F933F938F939F93AF93BF9380916906E0
S11330F090916A06A0916B06B0916C0630916D06B2
S11331000196A11DB11D232F2D5F2D3720F02D57C2
S11331100196A11DB11D20936D06809369069093BD
S11331206A06A0936B06B0936C0680916506909135
S11331306606A0916706B09168060196A11DB11DAF
S11331408093650690936606A0936706B09368061D
S1133150BF91AF919F918F913F912F910F900FBE8F
S11331600F901F9018958FB7F894209169063091AD
S11331706A0640916B0650916C068FBFB901CA0173
S11331800895019739F0880F991F880F991F0297A6
S11331900197F1F70895789484B5826084BD84B56D
S11331A0816084BD85B5826085BD85B5816085BD3E
S11331B0EEE6F0E0808181608083E1E8F0E0108257
S11331C0808182608083808181608083E0E8F0E098
S11331D0808181608083E1EBF0E080818460808382
S11331E0E0EBF0E0808181608083EAE7F0E08081B9
S11331F08460808380818260808380818160808319
S11332008081806880831092C1000895CF93DF93FA
S1133210482F50E0CA0186559F4FFC0134914A560D
S11332205F4FFA018491882369F190E0880F991F18
S1133230FC01E858FF4FA591B491FC01EE57FF4FF4
S1133240C591D491662351F42FB7F8948C91932FA0
S1133250909589238C93888189230BC0623061F413
S11332602FB7F8948C91932F909589238C93888110
S1133270832B88832FBF06C09FB7F8948C91832B30
S11332808C939FBFDF91CF910895482F50E0CA01DE
S113329082549F4FFC012491CA0186559F4FFC0123
S11332A094914A565F4FFA013491332309F440C094
S11332B0222351F1233071F0243028F42130A1F07D
S11332C0223011F514C02630B1F02730C1F024307B
S11332D0D9F404C0809180008F7703C0809180006E
S11332E08F7D8093800010C084B58F7702C084B531
S11332F08F7D84BD09C08091B0008F7703C0809119
S1133300B0008F7D8093B000E32FF0E0EE0FFF1F3D
S1133310EE57FF4FA591B4912FB7F894662321F48B
S11333208C919095892302C08C91892B8C932FBF0B
S1133330089508951F920F920FB60F9211242F93A0
S11333403F934F938F939F93EF93FF938091C0008C
S113335082FD1DC04091C6002091AE063091AF069B
S11333602F5F3F4F2F7330708091B0069091B1065C
S11333702817390771F0E091AE06F091AF06E259D3
S1133380F94F40833093AF062093AE0602C080917C
S1133390C600FF91EF919F918F914F913F912F9193
S11333A00F900FBE0F901F901895E0910207F091B7
S11333B00307E05CFF4F8191919120813181821B51
S11333C0930B8F739070892B11F00E9499190895B3
S11333D01F920F920FB60F9211242F933F938F9346
S11333E09F93EF93FF932091F2063091F30680911F
S11333F0F4069091F5062817390731F48091C1003D
S11334008F7D8093C10014C0E091F406F091F5061D
S1133410EE54F94F20818091F4069091F5060196BF
S11334208F7390709093F5068093F4062093C600F2
S1133430FF91EF919F918F913F912F910F900FBE2C
S11334400F901F901895AF92BF92DF92EF92FF9268
S11334500F931F93CF93DF93EC017A018B01DD244B
S1133460403081EE580780E0680780E0780711F06B
S1133470DD24D39491E0A92EB12CEC89FD89DD20C3
S113348069F0C50108A002C0880F991F0A94E2F7E9
S1133490808360E079E08DE390E005C0108260E80D
S11334A074E88EE190E0A80197010E94511D21501B
S11334B0304040405040569547953795279580E1D8
S11334C02030380720F0DD2011F0DD24D6CFE88944
S11334D0F9893083EA89FB89208319A2EE89FF895F
S11334E0408121E030E0C9010C8C02C0880F991F93
S11334F00A94E2F7482B4083EE89FF894081C90191
S11335000D8C02C0880F991F0A94E2F7482B408360
S1133510EE89FF894081C9010E8C02C0880F991F72
S11335200A94E2F7482B4083EE89FF8980810F8C4F
S113353002C0220F331F0A94E2F720952823208328
S1133540DF91CF911F910F91FF90EF90DF90BF908B
S1133550AF900895DC011C96ED91FC911D97E05C01
S1133560FF4F2191319180819181281B390B2F7359
S11335703070C9010895DC011C96ED91FC911D97F2
S1133580E05CFF4F20813181E054F040DF01AE5B0D
S1133590BF4F8D919C9111972817390719F42FEF7C
S11335A03FEF07C08D919C91E80FF91F8081282F70
S11335B030E0C9010895DC011C96ED91FC911D9742
S11335C0E05CFF4F20813181E054F040DF01AE5BCD
S11335D0BF4F8D919C9111972817390719F42FEF3C
S11335E03FEF10C08D919C911197E80FF91F208136
S11335F08D919C91119701968F73907011969C9365
S11336008E9330E0C9010895DC0191968C919197D5
S1133610882339F05496ED91FC915597808186FF6B
S1133620F9CF91961C920895CF93DF93EC01EE8528
S1133630FF85E05CFF4F20813181E054F0402F5F33
S11336403F4F2F733070DF01AE5BBF4F8D919C9164
S1133650119728173907D1F3E05CFF4F80819181DE
S1133660E054F040E80FF91F6083EE85FF85E05CCD
S1133670FF4F31832083EE89FF89208181E090E030
S11336800F8C02C0880F991F0A94E2F7282B20831D
S113369081E089A3EC89FD8980818064808381E055
S11336A090E0DF91CF9108951092F9061092F806F8
S11336B088EE93E0A0E0B0E08093FA069093FB06D6
S11336C0A093FC06B093FD0680ED93E09093F7067B
S11336D08093F6068EE696E09093030780930207A4
S11336E082EB96E0909305078093040785EC90E0C5
S11336F0909307078093060784EC90E09093090762
S11337008093080780EC90E090930B0780930A075E
S113371081EC90E090930D0780930C0782EC90E08D
S113372090930F0780930E0786EC90E09093110717
S11337308093100784E08093120783E0809313073B
S113374087E08093140785E08093150781E08093D8
S113375016070895CF93DF930E94CB180E94890324
S1133760C5EDD9E10E948A042097E1F30E94D5199E
S1133770F9CF08950E94D3170895CF92DF92EF9264
S1133780FF920F931F93CF93DF937C016B018A0108
S1133790C0E0D0E00FC0D6016D916D01D701ED916D
S11337A0FC910190F081E02DC7010995C80FD91F44
S11337B0015010400115110571F7CE01DF91CF9131
S11337C01F910F91FF90EF90DF90CF900895EF92AB
S11337D0FF920F931F938C01DC01ED91FC910190FA
S11337E0F081E02D6DE009957C01D801ED91FC910B
S11337F00190F081E02DC8016AE009959C012E0D2D
S11338003F1DC9011F910F91FF90EF900895CF9331
S1133810DF93EC016115710519F420E030E00FC06D
S1133820DB010D900020E9F71197A61BB70BE88187
S1133830F9810280F381E02DAD0109959C01C90154
S1133840DF91CF9108954F925F927F928F929F92D2
S1133850AF92BF92CF92DF92EF92FF920F931F939A
S1133860DF93CF93CDB7DEB7A1970FB6F894DEBF41
S11338700FBECDBF2C01742ECB01223008F42AE0F8
S113388019A231E2C32ED12CCC0EDD1E822E992436
S1133890AA24BB24672D752FA50194010E94511DF4
S11338A079018A01C801B701A50194010E941F1D75
S11338B0472D461B0894C108D1084A3014F4405DD2
S11338C001C0495CF6014083E114F10401051105CE
S11338D021F07E2C5F2DC801DDCFC201B6010E940C
S11338E0071CA1960FB6F894DEBF0FBECDBFCF91D3
S11338F0DF911F910F91FF90EF90DF90CF90BF90D9
S1133900AF909F908F907F905F904F900895DC01CF
S11339102115310541F4ED91FC910190F081E02DE8
S1133920642F099508950E94231C0895EF92FF9235
S11339300F931F937C010E94871C8C01C7010E9476
S1133940E71B9C01200F311FC9011F910F91FF90AC
S1133950EF900895CF92DF92EF92FF920F931F930F
S1133960CF93DF93EC016A017B012115310541F40A
S1133970E881F9810190F081E02D642F09951FC041
S11339802A303105D1F477FF17C0E881F98101901D
S1133990F081E02D6DE209958C0144275527BA0189
S11339A04C195D096E097F09CE012AE00E94231C8F
S11339B09801280F391F04C02AE00E94231C9C018F
S11339C0C901DF91CF911F910F91FF90EF90DF908C
S11339D0CF900895CF92DF92EF92FF920F931F93AF
S11339E06C017B019A010027F7FC0095102FB801A8
S11339F0A7010E94AA1C8C01C6010E94E71B080FA4
S1133A00191FC8011F910F91FF90EF90DF90CF9085
S1133A1008950E94071C0895EF92FF920F931F933D
S1133A207C010E94071C8C01C7010E94E71B080F40
S1133A30191FC8011F910F91FF90EF900895629F85
S1133A40D001739FF001829FE00DF11D649FE00D92
S1133A50F11D929FF00D839FF00D749FF00D659FF3
S1133A60F00D9927729FB00DE11DF91F639FB00DF2
S1133A70E11DF91FBD01CF011124089597FB092E03
S1133A8007260AD077FD04D049D006D000201AF4C6
S1133A90709561957F4F0895F6F7909581959F4FA6
S1133AA00895A1E21A2EAA1BBB1BFD010DC0AA1F7B
S1133AB0BB1FEE1FFF1FA217B307E407F50720F093
S1133AC0A21BB30BE40BF50B661F771F881F991F0E
S1133AD01A9469F760957095809590959B01AC0157
S1133AE0BD01CF01089597FB092E05260ED057FD81
S1133AF004D0D7DF0AD0001C38F450954095309597
S1133B0021953F4F4F4F5F4F0895F6F7909580955D
S1133B10709561957F4F8F4F9F4F0895AA1BBB1BD4
S1133B2051E107C0AA1FBB1FA617B70710F0A61BB9
S1133B30B70B881F991F5A95A9F780959095BC01DA
S1133B40CD010895EE0FFF1F0590F491E02D099427
S1133B50FB01DC0104C08D910190801921F44150D6
S1133B605040C8F7881B990B0895FC018191861772
S1133B7021F08823D9F7992708953197CF01089523
S1133B80FB01DC014150504048F001900D920020AF
S1133B90C9F701C01D9241505040E0F7089510E06C
S1133BA0C8EDD0E004C0FE010E94A41D2296CA3DC7
S10B3BB0D107C9F7F894FFCF17
S1133BB800000000180136012F026A0175012E0168
S1133BC800000000B91BBD1BB91BB91BB91BB91BED
S1133BD80000000039033C0333033F03496E697452
S1133BE869616C697A696E67205344206361726401
S1133BF82E2E2E00696E697469616C697A61746924
S1133C086F6E206661696C65642100696E69746908
S1133C18616C697A6174696F6E20646F6E652E00D9
S1133C284F70656E696E67206578616D706C652E7E
S1133C386462202E2E2E006578616D706C652E648A
S1133C4862005265636F726420436F756E743A2024
S1133C58004372656174696E67205265636F7264AC
S1133C68732E2E2E0049443A200054656D703A2074
S1133C78002F0000000000D710BD1BFFFFFFFF54FA
S1133C88686520636F646520697320646966666586
S1133C9872656E74210054686520636F64652069D9
S1133CA873207468652073616D652100436F6465D2
S1133CB820706C61796564207375636365737366DA
S1133CC8756C6C7921004E6F20636F646520706C8D
S1133CD86179656421002D2D2D2D2D2D2D2D2D2D52
S1133CE82D2D2D2D2D2D2D2D205265706F727420A4
S1133CF82D2D2D2D2D2D2D2D2D2D2D2D2D2D2D2DE8
S1133D082D2D0047656E6572616C20696E666F7251
S1133D186D6174696F6E3A00485A3A00436F64657E
S1133D287320696E666F726D6174696F6E3A0043D1
S1133D386F6465732063617074757265643A2000FA
S1133D486D79436F64652E6D5F636F64652E70755E
S1133D586C7365735B005D2E6869676856616C7582
S1133D6865203D20003B005D2E6C6F7756616C75B5
S1133D7865203D20004E6F20636F64652074656183
S1133D8863686564207965742120506C6561736586
S1133D98207465636820616761696E210054696DE8
S1133DA865206F75742E2054727920616761696E7D
S1133DB821004D6178696D756D20616D6F756E7444
S1133DC82072656163686564212054686520636FA7
S1133DD86465206973206269676765722074686125
S1133DE86E20746865206D6178696D756D20616CED
S1133DF86C6F776564212054727920616761696EFC
S1133E0821005374617274207465616368696E6714
S1133E182E20506C6561736520707265737320740D
S1133E28686520495220627574746F6E2100546568
S1133E386163686564205375636365737366756C41
S1133E486C7921004469646E277420546561636841
S1133E58205375636365737366756C6C7921000010
S1133E68000000111712166E616E00696E66006F0D
S1133E787666002E000080001C0700000000000089
S10F3E88141BBD1BAA1ADB1ABB1A041B76
S9030000FC
