:100000000C9462000C948A000C948A000C948A0070
:100010000C948A000C948A000C948A000C948A0038
:100020000C948A000C948A000C948A000C948A0028
:100030000C948A000C948A000C948A000C948A0018
:100040000C9422040C948A000C9404050C94520520
:100050000C948A000C948A000C948A000C948A00F8
:100060000C948A000C948A000000000024002700F1
:100070002A0000000000250028002B0000000000DE
:1000800023002600290004040404040404040202DA
:100090000202020203030303030301020408102007
:1000A0004080010204081020010204081020000012
:1000B0000007000201000003040600000000000029
:1000C0000000370611241FBECFEFD8E0DEBFCDBF42
:1000D00013E0A0E0B1E0E6E4FFE002C005900D927D
:1000E000AA31B107D9F713E0AAE1B3E001C01D922C
:1000F000A13DB107E1F710E0C4ECD0E004C02297C5
:10010000FE010E949D07C23CD107C9F70E948D06DF
:100110000C94A1070C9400006F927F928F929F9293
:10012000AF92BF92CF92DF92EF92FF920F931F9305
:10013000CF93DF930F92CDB7DEB7F82E4A01690156
:10014000F9011182108281E0A82EB12C062E02C086
:10015000AA0CBB1C0A94E2F716C0F60180819181BB
:100160008815990520F01182108280E021C0C80115
:1001700069830E946A04F60180819181800F911F3A
:1001800091838083698189B190E0FF2029F08A21E1
:100190009B21009749F40BC0062E02C095958795C8
:1001A0000A94E2F780FD03C0EE2069F3D6CF81E028
:1001B0000F90DF91CF911F910F91FF90EF90DF9003
:1001C000CF90BF90AF909F908F907F906F90089549
:1001D0003F924F925F926F927F928F929F92AF92D7
:1001E000BF92CF92DF92EF92FF920F931F93CF9324
:1001F000DF93382ED62ECA01B901E8011882198280
:100200001A821B8201E010E00D2C02C0000F111FAA
:100210000A94E2F728EE33E040E050E00E9418072D
:100220004B015C012701662457FC6094762C1EC0AC
:1002300088819981AA81BB8188159905AA05BB058A
:1002400030F0188219821A821B8280E024C0C70114
:100250000E946A0488819981AA81BB81840D951DC1
:10026000A61DB71D88839983AA83BB8389B190E0BB
:10027000332029F080239123009749F40BC00D2CE3
:1002800002C0959587950A94E2F780FD03C0CC20C3
:1002900069F3CECF81E0DF91CF911F910F91FF9055
:1002A000EF90DF90CF90BF90AF909F908F907F9016
:1002B0006F905F904F903F90089524E031E0FC01F3
:1002C0003183208308950E94C80208950E94C901C5
:1002D000089524E031E0FC01318320830E949C06D4
:1002E0000895089508957F928F929F92AF92BF9242
:1002F000CF92DF92EF92FF920F931F93CF93DF93F2
:100300004A015B01722EA801970160E472E48FE05C
:1003100090E00E946C07C901069762E070E00E94BD
:100320003707EB01CB010396880F991F6C01EE2470
:10033000D7FCE094FE2CF094E094D094C094C11CBF
:10034000D11CE11CF11C12C0872D61E00E94AF049A
:10035000CE010E946A04872D60E00E94AF04CE01A6
:100360000E946A048C0C9D1CAE1CBF1C181419043E
:100370001A041B044CF3DF91CF911F910F91FF9052
:10038000EF90DF90CF90BF90AF909F908F907F9035
:1003900008958F929F92AF92BF92CF92DF92EF9289
:1003A000FF920F931F93CF93DF93EC014B018A8150
:1003B000882309F52EC0E985FA85EC0DFD1D4081E5
:1003C000518160E070E0EB80FC800D811E81CE01E8
:1003D00094010E947301E985FA85EC0DFD1D82816F
:1003E00093810E946A040894A11CB11C84E090E0EF
:1003F000C80ED91E04C0CC24DD24AA24BB248F81BE
:100400009885A816B906BCF28BEA93E06AE371E01E
:1004100004C08BEA93E064E571E00E940507DF9178
:10042000CF911F910F91FF90EF90DF90CF90BF90F1
:10043000AF909F908F9008953F924F925F926F92EE
:100440007F928F929F92AF92BF92CF92DF92EF9264
:10045000FF920F931F93CF93DF9300D000D000D073
:10046000CDB7DEB75C012B013E832D83FC01D38425
:10047000332433943D241282108617828D2D442319
:10048000A9F028E833E140E050E08E010F5F1F4FF4
:10049000FEE1EF2EF12CCC24C3940E94E8008823C7
:1004A00091F48BEA93E06BE272E01EC028E833E13E
:1004B00040E050E08E010F5F1F4FEEE1EE2EF12C79
:1004C000CC240E94E80066247724882499242D8176
:1004D0003E81F501821693065CF012821086178227
:1004E0008BEA93E060E472E00E94050780E038C088
:1004F00021853285260D371D832DB20148EE5DEF33
:100500000EE110E0EE24E3940E948C00882331F485
:1005100081E0F50182839086878222C0F5012185E2
:100520003285260D371D2E5F3F4F8D2DB20148EECF
:100530005DEF0EE110E0EE24E3940E948C0024E0D5
:1005400030E0620E731E94012F5F3F4F882331F419
:1005500081E0F50182833087278302C04901B7CF4C
:1005600026960FB6F894DEBF0FBECDBFDF91CF91B8
:100570001F910F91FF90EF90DF90CF90BF90AF90C1
:100580009F908F907F906F905F904F903F900895D5
:100590000F931F93CF93DF93EC018B018BEA93E0D2
:1005A00060E972E00E9405072C853D85CE01B80107
:1005B00041E00E941C02882329F08BEA93E06CEB57
:1005C00072E004C08BEA93E062ED72E00E940507DE
:1005D000DF91CF911F910F9108950F931F93CF93A8
:1005E000DF93BC018230910510F462E070E0E0918D
:1005F000CF03F091D00340E050E0A0E0B0E024C091
:100600008081918186179707D0F08617970771F43C
:1006100082819381109729F013969C938E93129761
:100620002CC09093D0038093CF0327C04115510570
:1006300019F08417950718F48D01AC01EF01DF0163
:10064000828193819C01F9013097D1F641155105C2
:10065000F9F0CA01861B970B8430910580F48A81DA
:100660009B810115110521F0F8019383828304C059
:100670009093D0038093CF03FE01329645C0FE01D4
:10068000E80FF91F619371930297998388833CC0A7
:100690008091CD039091CE03892B41F48091060384
:1006A000909107039093CE038093CD03409108036C
:1006B000509109034115510541F44DB75EB7809142
:1006C000040390910503481B590B2091CD033091F1
:1006D000CE0324173507B0F4CA01821B930B86178B
:1006E000970780F0AB014E5F5F4F8417950750F07E
:1006F000420F531F5093CE034093CD03F9016193F2
:10070000719302C0E0E0F0E0CF01DF91CF911F9143
:100710000F910895CF93DF939C01009709F48FC048
:10072000EC0122971B821A826091CF037091D00353
:100730006115710581F488819981820F931F209141
:10074000CD033091CE032817390739F5D093CE0366
:10075000C093CD0374C0DB0140E050E0AC17BD078F
:1007600008F1BB83AA83FE0121913191E20FF31FAF
:10077000AE17BF0779F48D919C911197280F391FFF
:100780002E5F3F4F3983288312968D919C9113974A
:100790009B838A834115510571F4D093D003C09394
:1007A000CF034DC012968D919C911397AD01009788
:1007B00011F0DC01D3CFDA011396DC93CE931297BC
:1007C000FA0121913191E20FF31FCE17DF0769F48F
:1007D00088819981280F391F2E5F3F4FFA0131839D
:1007E00020838A819B8193838283E0E0F0E0DB01B8
:1007F00012968D919C911397009719F0BC01FD0101
:10080000F6CFAB014E5F5F4FDB018D919C91840F62
:10081000951F2091CD033091CE032817390779F425
:10082000309729F41092D0031092CF0302C01382A4
:100830001282425050405093CE034093CD03DF913B
:10084000CF9108951F920F920FB60F9211242F93FC
:100850003F938F939F93AF93BF9380911E0390918B
:100860001F03A0912003B091210330912203019630
:10087000A11DB11D232F2D5F2D3720F02D5701967F
:10088000A11DB11D2093220380931E0390931F038B
:10089000A0932003B093210380911A0390911B032E
:1008A000A0911C03B0911D030196A11DB11D809361
:1008B0001A0390931B03A0931C03B0931D03BF91D5
:1008C000AF919F918F913F912F910F900FBE0F90FD
:1008D0001F901895019739F0880F991F880F991F5D
:1008E00002970197F1F70895789484B5826084BDEA
:1008F00084B5816084BD85B5826085BD85B5816024
:1009000085BDEEE6F0E0808181608083E1E8F0E083
:100910001082808182608083808181608083E0E8B2
:10092000F0E0808181608083E1EBF0E08081846091
:100930008083E0EBF0E0808181608083EAE7F0E093
:1009400080818460808380818260808380818160F7
:1009500080838081806880831092C1000895482F31
:1009600050E0CA0182559F4FFC012491CA0186566E
:100970009F4FFC0194914A575F4FFA013491332302
:1009800009F440C0222351F1233071F0243028F4BF
:100990002130A1F0223011F514C02630B1F02730FB
:1009A000C1F02430D9F404C0809180008F7703C057
:1009B000809180008F7D8093800010C084B58F77F8
:1009C00002C084B58F7D84BD09C08091B0008F774F
:1009D00003C08091B0008F7D8093B000E32FF0E0E2
:1009E000EE0FFF1FEE58FF4FA591B4912FB7F8946B
:1009F000662321F48C919095892302C08C91892BD8
:100A00008C932FBF089508951F920F920FB60F92E7
:100A100011242F933F934F938F939F93EF93FF93C3
:100A20008091C00082FD1DC04091C60020916303EB
:100A3000309164032F5F3F4F2F73307080916503B7
:100A4000909166032817390771F0E0916303F091E4
:100A50006403ED5DFC4F4083309364032093630394
:100A600002C08091C600FF91EF919F918F914F91AD
:100A70003F912F910F900FBE0F901F901895E0910E
:100A8000B703F091B803E05CFF4F81919191208111
:100A90003181821B930B8F739070892B11F00E9410
:100AA000030508951F920F920FB60F9211242F93F2
:100AB0003F938F939F93EF93FF932091A7033091E0
:100AC000A8038091A9039091AA032817390731F44C
:100AD0008091C1008F7D8093C10014C0E091A90373
:100AE000F091AA03E959FC4F20818091A9039091CC
:100AF000AA0301968F7390709093AA038093A90321
:100B00002093C600FF91EF919F918F913F912F917C
:100B10000F900FBE0F901F901895DC011C96ED9161
:100B2000FC911D97E05CFF4F219131918081918173
:100B3000281B390B2F733070C9010895DC011C96F6
:100B4000ED91FC911D97E05CFF4F20813181E054D5
:100B5000F040DF01AE5BBF4F8D919C91119728173C
:100B6000390719F42FEF3FEF07C08D919C91E80FE3
:100B7000F91F8081282F30E0C9010895DC011C96FF
:100B8000ED91FC911D97E05CFF4F20813181E05495
:100B9000F040DF01AE5BBF4F8D919C9111972817FC
:100BA000390719F42FEF3FEF10C08D919C911197E9
:100BB000E80FF91F20818D919C91119701968F73F9
:100BC000907011969C938E9330E0C9010895DC01DA
:100BD00091968C919197882339F05496ED91FC91E0
:100BE0005597808186FFF9CF91961C920895CF93F7
:100BF000DF93EC01EE85FF85E05CFF4F20813181C2
:100C0000E054F0402F5F3F4F2F733070DF01AE5B39
:100C1000BF4F8D919C91119728173907D1F3E05C54
:100C2000FF4F80819181E054F040E80FF91F60830D
:100C3000EE85FF85E05CFF4F31832083EE89FF89DD
:100C4000208181E090E00F8C02C0880F991F0A94E8
:100C5000E2F7282B208381E089A3EC89FD8980813C
:100C60008064808381E090E0DF91CF9108951092BD
:100C7000AE031092AD0388EE93E0A0E0B0E0809365
:100C8000AF039093B003A093B103B093B2038EE08F
:100C900093E09093AC038093AB0383E293E0909353
:100CA000B8038093B70387E693E09093BA038093E9
:100CB000B90385EC90E09093BC038093BB0384EC74
:100CC00090E09093BE038093BD0380EC90E09093FE
:100CD000C0038093BF0381EC90E09093C2038093A4
:100CE000C10382EC90E09093C4038093C30386EC2D
:100CF00090E09093C6038093C50384E08093C7037C
:100D000083E08093C80387E08093C90385E08093E4
:100D1000CA0381E08093CB030895CF93DF930E94B1
:100D200074040E947101CFE3D5E00E947201209704
:100D3000E1F30E943F05F9CF0E948A030895CF9204
:100D4000DF92EF92FF920F931F93CF93DF937C017B
:100D50006B018A01C0E0D0E00FC0D6016D916D013A
:100D6000D701ED91FC910190F081E02DC70109952B
:100D7000C80FD91F015010400115110571F7CE01A0
:100D8000DF91CF911F910F91FF90EF90DF90CF9067
:100D90000895EF92FF920F931F938C01DC01ED9168
:100DA000FC910190F081E02D6DE009957C01D80166
:100DB000ED91FC910190F081E02DC8016AE0099568
:100DC0009C012E0D3F1DC9011F910F91FF90EF90C7
:100DD0000895CF93DF93EC016115710519F420E0BC
:100DE00030E00FC0DB010D900020E9F71197A61B42
:100DF000B70BE881F9810280F381E02DAD010995FF
:100E00009C01C901DF91CF910895EF92FF920F935A
:100E10001F937C010E94E9068C01C7010E94C9064C
:100E2000080F191FC8011F910F91FF90EF900895AF
:100E3000629FD001739FF001829FE00DF11D649FBE
:100E4000E00DF11D929FF00D839FF00D749FF00D4A
:100E5000659FF00D9927729FB00DE11DF91F639FEB
:100E6000B00DE11DF91FBD01CF011124089597FBBD
:100E7000092E07260AD077FD04D049D006D00020DD
:100E80001AF4709561957F4F0895F6F790958195C6
:100E90009F4F0895A1E21A2EAA1BBB1BFD010DC096
:100EA000AA1FBB1FEE1FFF1FA217B307E407F5071A
:100EB00020F0A21BB30BE40BF50B661F771F881FF6
:100EC000991F1A9469F760957095809590959B018C
:100ED000AC01BD01CF01089597FB092E05260ED068
:100EE00057FD04D0D7DF0AD0001C38F45095409548
:100EF000309521953F4F4F4F5F4F0895F6F79095EE
:100F00008095709561957F4F8F4F9F4F0895AA1BD5
:100F1000BB1B51E107C0AA1FBB1FA617B70710F0E4
:100F2000A61BB70B881F991F5A95A9F78095909516
:100F3000BC01CD010895EE0FFF1F0590F491E02D47
:060F40000994F894FFCFB4
:100F460000000000630166015D0169010A546865DD
:100F560020636F64652069732064696666657265DF
:100F66006E74210054686520636F64652069732080
:100F76007468652073616D652100436F6465207038
:100F86006C61796564207375636365737366756CEC
:100F96006C7921004E6F20636F646520706C6179F7
:100FA600656421002D2D2D2D2D2D2D2D2D2D2D2D35
:100FB6002D2D2D2D2D2D205265706F7274202D2D07
:100FC6002D2D2D2D2D2D2D2D2D2D2D2D2D2D2D2D4B
:100FD6000047656E6572616C20696E666F726D6141
:100FE60074696F6E3A00485A3A00436F646573201D
:100FF600696E666F726D6174696F6E3A00436F64F5
:1010060065732063617074757265643A20006D794A
:10101600436F64652E6D5F636F64652E70756C73C8
:1010260065735B005D2E6869676856616C7565203F
:101036003D20003B005D2E6C6F7756616C75652018
:101046003D20004E6F20636F6465207465616368A0
:101056006564207965742120506C65617365207420
:1010660065636820616761696E210054696D65205A
:101076006F75742E2054727920616761696E210044
:101086004D6178696D756D20616D6F756E74207236
:10109600656163686564212054686520636F6465D3
:1010A60020697320626967676572207468616E20C3
:1010B600746865206D6178696D756D20616C6C6F03
:1010C600776564212054727920616761696E210019
:1010D6005374617274207465616368696E672E204B
:1010E600506C6561736520707265737320746865F2
:1010F60020495220627574746F6E210054656163D5
:10110600686564205375636365737366756C6C7983
:1011160021004469646E2774205465616368205316
:1011260075636365737366756C6C792100000000E6
:1011360000C802C9016E616E00696E66006F766650
:10114600002E00008000D103000000000000F7051B
:0A1156009F068D05BE059E05E70506
:00000001FF
